{
  "_format": "hh-sol-artifact-1",
  "contractName": "PixelNFT",
  "sourceName": "contracts/PixelNFT.sol",
  "abi": [
    {
      "inputs": [],
      "stateMutability": "nonpayable",
      "type": "constructor"
    },
    {
      "anonymous": false,
      "inputs": [
        {
          "indexed": true,
          "internalType": "address",
          "name": "owner",
          "type": "address"
        },
        {
          "indexed": true,
          "internalType": "address",
          "name": "approved",
          "type": "address"
        },
        {
          "indexed": true,
          "internalType": "uint256",
          "name": "tokenId",
          "type": "uint256"
        }
      ],
      "name": "Approval",
      "type": "event"
    },
    {
      "anonymous": false,
      "inputs": [
        {
          "indexed": true,
          "internalType": "address",
          "name": "owner",
          "type": "address"
        },
        {
          "indexed": true,
          "internalType": "address",
          "name": "operator",
          "type": "address"
        },
        {
          "indexed": false,
          "internalType": "bool",
          "name": "approved",
          "type": "bool"
        }
      ],
      "name": "ApprovalForAll",
      "type": "event"
    },
    {
      "anonymous": false,
      "inputs": [
        {
          "indexed": true,
          "internalType": "address",
          "name": "from",
          "type": "address"
        },
        {
          "indexed": true,
          "internalType": "address",
          "name": "to",
          "type": "address"
        },
        {
          "indexed": true,
          "internalType": "uint256",
          "name": "tokenId",
          "type": "uint256"
        }
      ],
      "name": "Transfer",
      "type": "event"
    },
    {
      "inputs": [
        {
          "internalType": "address",
          "name": "to",
          "type": "address"
        },
        {
          "internalType": "uint256",
          "name": "tokenId",
          "type": "uint256"
        }
      ],
      "name": "approve",
      "outputs": [],
      "stateMutability": "nonpayable",
      "type": "function"
    },
    {
      "inputs": [
        {
          "internalType": "address",
          "name": "owner",
          "type": "address"
        }
      ],
      "name": "balanceOf",
      "outputs": [
        {
          "internalType": "uint256",
          "name": "",
          "type": "uint256"
        }
      ],
      "stateMutability": "view",
      "type": "function"
    },
    {
      "inputs": [
        {
          "internalType": "string",
          "name": "_tokenURI",
          "type": "string"
        }
      ],
      "name": "createToken",
      "outputs": [
        {
          "internalType": "uint256",
          "name": "",
          "type": "uint256"
        }
      ],
      "stateMutability": "nonpayable",
      "type": "function"
    },
    {
      "inputs": [
        {
          "internalType": "uint256",
          "name": "tokenId",
          "type": "uint256"
        }
      ],
      "name": "getApproved",
      "outputs": [
        {
          "internalType": "address",
          "name": "",
          "type": "address"
        }
      ],
      "stateMutability": "view",
      "type": "function"
    },
    {
      "inputs": [
        {
          "internalType": "address",
          "name": "owner",
          "type": "address"
        },
        {
          "internalType": "address",
          "name": "operator",
          "type": "address"
        }
      ],
      "name": "isApprovedForAll",
      "outputs": [
        {
          "internalType": "bool",
          "name": "",
          "type": "bool"
        }
      ],
      "stateMutability": "view",
      "type": "function"
    },
    {
      "inputs": [],
      "name": "name",
      "outputs": [
        {
          "internalType": "string",
          "name": "",
          "type": "string"
        }
      ],
      "stateMutability": "view",
      "type": "function"
    },
    {
      "inputs": [
        {
          "internalType": "uint256",
          "name": "tokenId",
          "type": "uint256"
        }
      ],
      "name": "ownerOf",
      "outputs": [
        {
          "internalType": "address",
          "name": "",
          "type": "address"
        }
      ],
      "stateMutability": "view",
      "type": "function"
    },
    {
      "inputs": [
        {
          "internalType": "address",
          "name": "from",
          "type": "address"
        },
        {
          "internalType": "address",
          "name": "to",
          "type": "address"
        },
        {
          "internalType": "uint256",
          "name": "tokenId",
          "type": "uint256"
        }
      ],
      "name": "safeTransferFrom",
      "outputs": [],
      "stateMutability": "nonpayable",
      "type": "function"
    },
    {
      "inputs": [
        {
          "internalType": "address",
          "name": "from",
          "type": "address"
        },
        {
          "internalType": "address",
          "name": "to",
          "type": "address"
        },
        {
          "internalType": "uint256",
          "name": "tokenId",
          "type": "uint256"
        },
        {
          "internalType": "bytes",
          "name": "_data",
          "type": "bytes"
        }
      ],
      "name": "safeTransferFrom",
      "outputs": [],
      "stateMutability": "nonpayable",
      "type": "function"
    },
    {
      "inputs": [
        {
          "internalType": "address",
          "name": "operator",
          "type": "address"
        },
        {
          "internalType": "bool",
          "name": "approved",
          "type": "bool"
        }
      ],
      "name": "setApprovalForAll",
      "outputs": [],
      "stateMutability": "nonpayable",
      "type": "function"
    },
    {
      "inputs": [
        {
          "internalType": "bytes4",
          "name": "interfaceId",
          "type": "bytes4"
        }
      ],
      "name": "supportsInterface",
      "outputs": [
        {
          "internalType": "bool",
          "name": "",
          "type": "bool"
        }
      ],
      "stateMutability": "view",
      "type": "function"
    },
    {
      "inputs": [],
      "name": "symbol",
      "outputs": [
        {
          "internalType": "string",
          "name": "",
          "type": "string"
        }
      ],
      "stateMutability": "view",
      "type": "function"
    },
    {
      "inputs": [
        {
          "internalType": "uint256",
          "name": "index",
          "type": "uint256"
        }
      ],
      "name": "tokenByIndex",
      "outputs": [
        {
          "internalType": "uint256",
          "name": "",
          "type": "uint256"
        }
      ],
      "stateMutability": "view",
      "type": "function"
    },
    {
      "inputs": [
        {
          "internalType": "address",
          "name": "owner",
          "type": "address"
        },
        {
          "internalType": "uint256",
          "name": "index",
          "type": "uint256"
        }
      ],
      "name": "tokenOfOwnerByIndex",
      "outputs": [
        {
          "internalType": "uint256",
          "name": "",
          "type": "uint256"
        }
      ],
      "stateMutability": "view",
      "type": "function"
    },
    {
      "inputs": [
        {
          "internalType": "uint256",
          "name": "tokenId",
          "type": "uint256"
        }
      ],
      "name": "tokenURI",
      "outputs": [
        {
          "internalType": "string",
          "name": "",
          "type": "string"
        }
      ],
      "stateMutability": "view",
      "type": "function"
    },
    {
      "inputs": [],
      "name": "totalSupply",
      "outputs": [
        {
          "internalType": "uint256",
          "name": "",
          "type": "uint256"
        }
      ],
      "stateMutability": "view",
      "type": "function"
    },
    {
      "inputs": [
        {
          "internalType": "address",
          "name": "from",
          "type": "address"
        },
        {
          "internalType": "address",
          "name": "to",
          "type": "address"
        },
        {
          "internalType": "uint256",
          "name": "tokenId",
          "type": "uint256"
        }
      ],
      "name": "transferFrom",
      "outputs": [],
      "stateMutability": "nonpayable",
      "type": "function"
    }
  ],
  "bytecode": "0x60806040523480156200001157600080fd5b506040518060400160405280600881526020017f506978656c4e46540000000000000000000000000000000000000000000000008152506040518060400160405280600681526020017f5049584e46540000000000000000000000000000000000000000000000000000815250816000908051906020019062000096929190620000b8565b508060019080519060200190620000af929190620000b8565b505050620001cd565b828054620000c69062000168565b90600052602060002090601f016020900481019282620000ea576000855562000136565b82601f106200010557805160ff191683800117855562000136565b8280016001018555821562000136579182015b828111156200013557825182559160200191906001019062000118565b5b50905062000145919062000149565b5090565b5b80821115620001645760008160009055506001016200014a565b5090565b600060028204905060018216806200018157607f821691505b602082108114156200019857620001976200019e565b5b50919050565b7f4e487b7100000000000000000000000000000000000000000000000000000000600052602260045260246000fd5b61326c80620001dd6000396000f3fe608060405234801561001057600080fd5b506004361061010b5760003560e01c806345576f94116100a257806395d89b411161007157806395d89b41146102f0578063a22cb4651461030e578063b88d4fde1461032a578063c87b56dd14610346578063e985e9c5146103765761010b565b806345576f94146102305780634f6ccce7146102605780636352211e1461029057806370a08231146102c05761010b565b806318160ddd116100de57806318160ddd146101aa57806323b872dd146101c85780632f745c59146101e457806342842e0e146102145761010b565b806301ffc9a71461011057806306fdde0314610140578063081812fc1461015e578063095ea7b31461018e575b600080fd5b61012a600480360381019061012591906122b3565b6103a6565b6040516101379190612b84565b60405180910390f35b610148610420565b6040516101559190612b9f565b60405180910390f35b61017860048036038101906101739190612346565b6104b2565b6040516101859190612b1d565b60405180910390f35b6101a860048036038101906101a39190612277565b610537565b005b6101b261064f565b6040516101bf9190612e01565b60405180910390f35b6101e260048036038101906101dd9190612171565b61065c565b005b6101fe60048036038101906101f99190612277565b6106bc565b60405161020b9190612e01565b60405180910390f35b61022e60048036038101906102299190612171565b610761565b005b61024a60048036038101906102459190612305565b610781565b6040516102579190612e01565b60405180910390f35b61027a60048036038101906102759190612346565b6107b7565b6040516102879190612e01565b60405180910390f35b6102aa60048036038101906102a59190612346565b61084e565b6040516102b79190612b1d565b60405180910390f35b6102da60048036038101906102d5919061210c565b610900565b6040516102e79190612e01565b60405180910390f35b6102f86109b8565b6040516103059190612b9f565b60405180910390f35b6103286004803603810190610323919061223b565b610a4a565b005b610344600480360381019061033f91906121c0565b610a60565b005b610360600480360381019061035b9190612346565b610ac2565b60405161036d9190612b9f565b60405180910390f35b610390600480360381019061038b9190612135565b610c14565b60405161039d9190612b84565b60405180910390f35b60007f780e9d63000000000000000000000000000000000000000000000000000000007bffffffffffffffffffffffffffffffffffffffffffffffffffffffff1916827bffffffffffffffffffffffffffffffffffffffffffffffffffffffff19161480610419575061041882610ca8565b5b9050919050565b60606000805461042f90613061565b80601f016020809104026020016040519081016040528092919081815260200182805461045b90613061565b80156104a85780601f1061047d576101008083540402835291602001916104a8565b820191906000526020600020905b81548152906001019060200180831161048b57829003601f168201915b5050505050905090565b60006104bd82610d8a565b6104fc576040517f08c379a00000000000000000000000000000000000000000000000000000000081526004016104f390612d41565b60405180910390fd5b6004600083815260200190815260200160002060009054906101000a900473ffffffffffffffffffffffffffffffffffffffff169050919050565b60006105428261084e565b90508073ffffffffffffffffffffffffffffffffffffffff168373ffffffffffffffffffffffffffffffffffffffff1614156105b3576040517f08c379a00000000000000000000000000000000000000000000000000000000081526004016105aa90612da1565b60405180910390fd5b8073ffffffffffffffffffffffffffffffffffffffff166105d2610df6565b73ffffffffffffffffffffffffffffffffffffffff1614806106015750610600816105fb610df6565b610c14565b5b610640576040517f08c379a000000000000000000000000000000000000000000000000000000000815260040161063790612c81565b60405180910390fd5b61064a8383610dfe565b505050565b6000600880549050905090565b61066d610667610df6565b82610eb7565b6106ac576040517f08c379a00000000000000000000000000000000000000000000000000000000081526004016106a390612dc1565b60405180910390fd5b6106b7838383610f95565b505050565b60006106c783610900565b8210610708576040517f08c379a00000000000000000000000000000000000000000000000000000000081526004016106ff90612bc1565b60405180910390fd5b600660008473ffffffffffffffffffffffffffffffffffffffff1673ffffffffffffffffffffffffffffffffffffffff168152602001908152602001600020600083815260200190815260200160002054905092915050565b61077c83838360405180602001604052806000815250610a60565b505050565b60008061078e600a6111f1565b905061079a33826111ff565b6107a481846113cd565b6107ae600a611441565b80915050919050565b60006107c161064f565b8210610802576040517f08c379a00000000000000000000000000000000000000000000000000000000081526004016107f990612de1565b60405180910390fd5b6008828154811061083c577f4e487b7100000000000000000000000000000000000000000000000000000000600052603260045260246000fd5b90600052602060002001549050919050565b6000806002600084815260200190815260200160002060009054906101000a900473ffffffffffffffffffffffffffffffffffffffff169050600073ffffffffffffffffffffffffffffffffffffffff168173ffffffffffffffffffffffffffffffffffffffff1614156108f7576040517f08c379a00000000000000000000000000000000000000000000000000000000081526004016108ee90612cc1565b60405180910390fd5b80915050919050565b60008073ffffffffffffffffffffffffffffffffffffffff168273ffffffffffffffffffffffffffffffffffffffff161415610971576040517f08c379a000000000000000000000000000000000000000000000000000000000815260040161096890612ca1565b60405180910390fd5b600360008373ffffffffffffffffffffffffffffffffffffffff1673ffffffffffffffffffffffffffffffffffffffff168152602001908152602001600020549050919050565b6060600180546109c790613061565b80601f01602080910402602001604051908101604052809291908181526020018280546109f390613061565b8015610a405780601f10610a1557610100808354040283529160200191610a40565b820191906000526020600020905b815481529060010190602001808311610a2357829003601f168201915b5050505050905090565b610a5c610a55610df6565b8383611457565b5050565b610a71610a6b610df6565b83610eb7565b610ab0576040517f08c379a0000000000000000000000000000000000000000000000000000000008152600401610aa790612dc1565b60405180910390fd5b610abc848484846115c4565b50505050565b6060610acd82610d8a565b610b0c576040517f08c379a0000000000000000000000000000000000000000000000000000000008152600401610b0390612d21565b60405180910390fd5b6000600b60008481526020019081526020016000208054610b2c90613061565b80601f0160208091040260200160405190810160405280929190818152602001828054610b5890613061565b8015610ba55780601f10610b7a57610100808354040283529160200191610ba5565b820191906000526020600020905b815481529060010190602001808311610b8857829003601f168201915b505050505090506000610bb6611620565b9050600081511415610bcc578192505050610c0f565b600082511115610c01578082604051602001610be9929190612af9565b60405160208183030381529060405292505050610c0f565b610c0a84611637565b925050505b919050565b6000600560008473ffffffffffffffffffffffffffffffffffffffff1673ffffffffffffffffffffffffffffffffffffffff16815260200190815260200160002060008373ffffffffffffffffffffffffffffffffffffffff1673ffffffffffffffffffffffffffffffffffffffff16815260200190815260200160002060009054906101000a900460ff16905092915050565b60007f80ac58cd000000000000000000000000000000000000000000000000000000007bffffffffffffffffffffffffffffffffffffffffffffffffffffffff1916827bffffffffffffffffffffffffffffffffffffffffffffffffffffffff19161480610d7357507f5b5e139f000000000000000000000000000000000000000000000000000000007bffffffffffffffffffffffffffffffffffffffffffffffffffffffff1916827bffffffffffffffffffffffffffffffffffffffffffffffffffffffff1916145b80610d835750610d82826116de565b5b9050919050565b60008073ffffffffffffffffffffffffffffffffffffffff166002600084815260200190815260200160002060009054906101000a900473ffffffffffffffffffffffffffffffffffffffff1673ffffffffffffffffffffffffffffffffffffffff1614159050919050565b600033905090565b816004600083815260200190815260200160002060006101000a81548173ffffffffffffffffffffffffffffffffffffffff021916908373ffffffffffffffffffffffffffffffffffffffff160217905550808273ffffffffffffffffffffffffffffffffffffffff16610e718361084e565b73ffffffffffffffffffffffffffffffffffffffff167f8c5be1e5ebec7d5bd14f71427d1e84f3dd0314c0f7b2291e5b200ac8c7c3b92560405160405180910390a45050565b6000610ec282610d8a565b610f01576040517f08c379a0000000000000000000000000000000000000000000000000000000008152600401610ef890612c61565b60405180910390fd5b6000610f0c8361084e565b90508073ffffffffffffffffffffffffffffffffffffffff168473ffffffffffffffffffffffffffffffffffffffff161480610f7b57508373ffffffffffffffffffffffffffffffffffffffff16610f63846104b2565b73ffffffffffffffffffffffffffffffffffffffff16145b80610f8c5750610f8b8185610c14565b5b91505092915050565b8273ffffffffffffffffffffffffffffffffffffffff16610fb58261084e565b73ffffffffffffffffffffffffffffffffffffffff161461100b576040517f08c379a000000000000000000000000000000000000000000000000000000000815260040161100290612d61565b60405180910390fd5b600073ffffffffffffffffffffffffffffffffffffffff168273ffffffffffffffffffffffffffffffffffffffff16141561107b576040517f08c379a000000000000000000000000000000000000000000000000000000000815260040161107290612c21565b60405180910390fd5b611086838383611748565b611091600082610dfe565b6001600360008573ffffffffffffffffffffffffffffffffffffffff1673ffffffffffffffffffffffffffffffffffffffff16815260200190815260200160002060008282546110e19190612f77565b925050819055506001600360008473ffffffffffffffffffffffffffffffffffffffff1673ffffffffffffffffffffffffffffffffffffffff16815260200190815260200160002060008282546111389190612ef0565b92505081905550816002600083815260200190815260200160002060006101000a81548173ffffffffffffffffffffffffffffffffffffffff021916908373ffffffffffffffffffffffffffffffffffffffff160217905550808273ffffffffffffffffffffffffffffffffffffffff168473ffffffffffffffffffffffffffffffffffffffff167fddf252ad1be2c89b69c2b068fc378daa952ba7f163c4a11628f55a4df523b3ef60405160405180910390a4505050565b600081600001549050919050565b600073ffffffffffffffffffffffffffffffffffffffff168273ffffffffffffffffffffffffffffffffffffffff16141561126f576040517f08c379a000000000000000000000000000000000000000000000000000000000815260040161126690612d01565b60405180910390fd5b61127881610d8a565b156112b8576040517f08c379a00000000000000000000000000000000000000000000000000000000081526004016112af90612c01565b60405180910390fd5b6112c460008383611748565b6001600360008473ffffffffffffffffffffffffffffffffffffffff1673ffffffffffffffffffffffffffffffffffffffff16815260200190815260200160002060008282546113149190612ef0565b92505081905550816002600083815260200190815260200160002060006101000a81548173ffffffffffffffffffffffffffffffffffffffff021916908373ffffffffffffffffffffffffffffffffffffffff160217905550808273ffffffffffffffffffffffffffffffffffffffff16600073ffffffffffffffffffffffffffffffffffffffff167fddf252ad1be2c89b69c2b068fc378daa952ba7f163c4a11628f55a4df523b3ef60405160405180910390a45050565b6113d682610d8a565b611415576040517f08c379a000000000000000000000000000000000000000000000000000000000815260040161140c90612ce1565b60405180910390fd5b80600b6000848152602001908152602001600020908051906020019061143c929190611f30565b505050565b6001816000016000828254019250508190555050565b8173ffffffffffffffffffffffffffffffffffffffff168373ffffffffffffffffffffffffffffffffffffffff1614156114c6576040517f08c379a00000000000000000000000000000000000000000000000000000000081526004016114bd90612c41565b60405180910390fd5b80600560008573ffffffffffffffffffffffffffffffffffffffff1673ffffffffffffffffffffffffffffffffffffffff16815260200190815260200160002060008473ffffffffffffffffffffffffffffffffffffffff1673ffffffffffffffffffffffffffffffffffffffff16815260200190815260200160002060006101000a81548160ff0219169083151502179055508173ffffffffffffffffffffffffffffffffffffffff168373ffffffffffffffffffffffffffffffffffffffff167f17307eab39ab6107e8899845ad3d59bd9653f200f220920489ca2b5937696c31836040516115b79190612b84565b60405180910390a3505050565b6115cf848484610f95565b6115db8484848461185c565b61161a576040517f08c379a000000000000000000000000000000000000000000000000000000000815260040161161190612be1565b60405180910390fd5b50505050565b606060405180602001604052806000815250905090565b606061164282610d8a565b611681576040517f08c379a000000000000000000000000000000000000000000000000000000000815260040161167890612d81565b60405180910390fd5b600061168b611620565b905060008151116116ab57604051806020016040528060008152506116d6565b806116b5846119f3565b6040516020016116c6929190612af9565b6040516020818303038152906040525b915050919050565b60007f01ffc9a7000000000000000000000000000000000000000000000000000000007bffffffffffffffffffffffffffffffffffffffffffffffffffffffff1916827bffffffffffffffffffffffffffffffffffffffffffffffffffffffff1916149050919050565b611753838383611ba0565b600073ffffffffffffffffffffffffffffffffffffffff168373ffffffffffffffffffffffffffffffffffffffff1614156117965761179181611ba5565b6117d5565b8173ffffffffffffffffffffffffffffffffffffffff168373ffffffffffffffffffffffffffffffffffffffff16146117d4576117d38382611bee565b5b5b600073ffffffffffffffffffffffffffffffffffffffff168273ffffffffffffffffffffffffffffffffffffffff1614156118185761181381611d5b565b611857565b8273ffffffffffffffffffffffffffffffffffffffff168273ffffffffffffffffffffffffffffffffffffffff1614611856576118558282611e9e565b5b5b505050565b600061187d8473ffffffffffffffffffffffffffffffffffffffff16611f1d565b156119e6578373ffffffffffffffffffffffffffffffffffffffff1663150b7a026118a6610df6565b8786866040518563ffffffff1660e01b81526004016118c89493929190612b38565b602060405180830381600087803b1580156118e257600080fd5b505af192505050801561191357506040513d601f19601f8201168201806040525081019061191091906122dc565b60015b611996573d8060008114611943576040519150601f19603f3d011682016040523d82523d6000602084013e611948565b606091505b5060008151141561198e576040517f08c379a000000000000000000000000000000000000000000000000000000000815260040161198590612be1565b60405180910390fd5b805181602001fd5b63150b7a0260e01b7bffffffffffffffffffffffffffffffffffffffffffffffffffffffff1916817bffffffffffffffffffffffffffffffffffffffffffffffffffffffff1916149150506119eb565b600190505b949350505050565b60606000821415611a3b576040518060400160405280600181526020017f30000000000000000000000000000000000000000000000000000000000000008152509050611b9b565b600082905060005b60008214611a6d578080611a5690613093565b915050600a82611a669190612f46565b9150611a43565b60008167ffffffffffffffff811115611aaf577f4e487b7100000000000000000000000000000000000000000000000000000000600052604160045260246000fd5b6040519080825280601f01601f191660200182016040528015611ae15781602001600182028036833780820191505090505b5090505b60008514611b9457600182611afa9190612f77565b9150600a85611b0991906130dc565b6030611b159190612ef0565b60f81b818381518110611b51577f4e487b7100000000000000000000000000000000000000000000000000000000600052603260045260246000fd5b60200101907effffffffffffffffffffffffffffffffffffffffffffffffffffffffffffff1916908160001a905350600a85611b8d9190612f46565b9450611ae5565b8093505050505b919050565b505050565b6008805490506009600083815260200190815260200160002081905550600881908060018154018082558091505060019003906000526020600020016000909190919091505550565b60006001611bfb84610900565b611c059190612f77565b9050600060076000848152602001908152602001600020549050818114611cea576000600660008673ffffffffffffffffffffffffffffffffffffffff1673ffffffffffffffffffffffffffffffffffffffff168152602001908152602001600020600084815260200190815260200160002054905080600660008773ffffffffffffffffffffffffffffffffffffffff1673ffffffffffffffffffffffffffffffffffffffff168152602001908152602001600020600084815260200190815260200160002081905550816007600083815260200190815260200160002081905550505b6007600084815260200190815260200160002060009055600660008573ffffffffffffffffffffffffffffffffffffffff1673ffffffffffffffffffffffffffffffffffffffff16815260200190815260200160002060008381526020019081526020016000206000905550505050565b60006001600880549050611d6f9190612f77565b9050600060096000848152602001908152602001600020549050600060088381548110611dc5577f4e487b7100000000000000000000000000000000000000000000000000000000600052603260045260246000fd5b906000526020600020015490508060088381548110611e0d577f4e487b7100000000000000000000000000000000000000000000000000000000600052603260045260246000fd5b906000526020600020018190555081600960008381526020019081526020016000208190555060096000858152602001908152602001600020600090556008805480611e82577f4e487b7100000000000000000000000000000000000000000000000000000000600052603160045260246000fd5b6001900381819060005260206000200160009055905550505050565b6000611ea983610900565b905081600660008573ffffffffffffffffffffffffffffffffffffffff1673ffffffffffffffffffffffffffffffffffffffff168152602001908152602001600020600083815260200190815260200160002081905550806007600084815260200190815260200160002081905550505050565b600080823b905060008111915050919050565b828054611f3c90613061565b90600052602060002090601f016020900481019282611f5e5760008555611fa5565b82601f10611f7757805160ff1916838001178555611fa5565b82800160010185558215611fa5579182015b82811115611fa4578251825591602001919060010190611f89565b5b509050611fb29190611fb6565b5090565b5b80821115611fcf576000816000905550600101611fb7565b5090565b6000611fe6611fe184612e4d565b612e1c565b905082815260208101848484011115611ffe57600080fd5b61200984828561301f565b509392505050565b600061202461201f84612e7d565b612e1c565b90508281526020810184848401111561203c57600080fd5b61204784828561301f565b509392505050565b60008135905061205e816131da565b92915050565b600081359050612073816131f1565b92915050565b60008135905061208881613208565b92915050565b60008151905061209d81613208565b92915050565b600082601f8301126120b457600080fd5b81356120c4848260208601611fd3565b91505092915050565b600082601f8301126120de57600080fd5b81356120ee848260208601612011565b91505092915050565b6000813590506121068161321f565b92915050565b60006020828403121561211e57600080fd5b600061212c8482850161204f565b91505092915050565b6000806040838503121561214857600080fd5b60006121568582860161204f565b92505060206121678582860161204f565b9150509250929050565b60008060006060848603121561218657600080fd5b60006121948682870161204f565b93505060206121a58682870161204f565b92505060406121b6868287016120f7565b9150509250925092565b600080600080608085870312156121d657600080fd5b60006121e48782880161204f565b94505060206121f58782880161204f565b9350506040612206878288016120f7565b925050606085013567ffffffffffffffff81111561222357600080fd5b61222f878288016120a3565b91505092959194509250565b6000806040838503121561224e57600080fd5b600061225c8582860161204f565b925050602061226d85828601612064565b9150509250929050565b6000806040838503121561228a57600080fd5b60006122988582860161204f565b92505060206122a9858286016120f7565b9150509250929050565b6000602082840312156122c557600080fd5b60006122d384828501612079565b91505092915050565b6000602082840312156122ee57600080fd5b60006122fc8482850161208e565b91505092915050565b60006020828403121561231757600080fd5b600082013567ffffffffffffffff81111561233157600080fd5b61233d848285016120cd565b91505092915050565b60006020828403121561235857600080fd5b6000612366848285016120f7565b91505092915050565b61237881612fab565b82525050565b61238781612fbd565b82525050565b600061239882612ead565b6123a28185612ec3565b93506123b281856020860161302e565b6123bb816131c9565b840191505092915050565b60006123d182612eb8565b6123db8185612ed4565b93506123eb81856020860161302e565b6123f4816131c9565b840191505092915050565b600061240a82612eb8565b6124148185612ee5565b935061242481856020860161302e565b80840191505092915050565b600061243d602b83612ed4565b91507f455243373231456e756d657261626c653a206f776e657220696e646578206f7560008301527f74206f6620626f756e64730000000000000000000000000000000000000000006020830152604082019050919050565b60006124a3603283612ed4565b91507f4552433732313a207472616e7366657220746f206e6f6e20455243373231526560008301527f63656976657220696d706c656d656e74657200000000000000000000000000006020830152604082019050919050565b6000612509601c83612ed4565b91507f4552433732313a20746f6b656e20616c7265616479206d696e746564000000006000830152602082019050919050565b6000612549602483612ed4565b91507f4552433732313a207472616e7366657220746f20746865207a65726f2061646460008301527f72657373000000000000000000000000000000000000000000000000000000006020830152604082019050919050565b60006125af601983612ed4565b91507f4552433732313a20617070726f766520746f2063616c6c6572000000000000006000830152602082019050919050565b60006125ef602c83612ed4565b91507f4552433732313a206f70657261746f7220717565727920666f72206e6f6e657860008301527f697374656e7420746f6b656e00000000000000000000000000000000000000006020830152604082019050919050565b6000612655603883612ed4565b91507f4552433732313a20617070726f76652063616c6c6572206973206e6f74206f7760008301527f6e6572206e6f7220617070726f76656420666f7220616c6c00000000000000006020830152604082019050919050565b60006126bb602a83612ed4565b91507f4552433732313a2062616c616e636520717565727920666f7220746865207a6560008301527f726f2061646472657373000000000000000000000000000000000000000000006020830152604082019050919050565b6000612721602983612ed4565b91507f4552433732313a206f776e657220717565727920666f72206e6f6e657869737460008301527f656e7420746f6b656e00000000000000000000000000000000000000000000006020830152604082019050919050565b6000612787602e83612ed4565b91507f45524337323155524953746f726167653a2055524920736574206f66206e6f6e60008301527f6578697374656e7420746f6b656e0000000000000000000000000000000000006020830152604082019050919050565b60006127ed602083612ed4565b91507f4552433732313a206d696e7420746f20746865207a65726f20616464726573736000830152602082019050919050565b600061282d603183612ed4565b91507f45524337323155524953746f726167653a2055524920717565727920666f722060008301527f6e6f6e6578697374656e7420746f6b656e0000000000000000000000000000006020830152604082019050919050565b6000612893602c83612ed4565b91507f4552433732313a20617070726f76656420717565727920666f72206e6f6e657860008301527f697374656e7420746f6b656e00000000000000000000000000000000000000006020830152604082019050919050565b60006128f9602983612ed4565b91507f4552433732313a207472616e73666572206f6620746f6b656e2074686174206960008301527f73206e6f74206f776e00000000000000000000000000000000000000000000006020830152604082019050919050565b600061295f602f83612ed4565b91507f4552433732314d657461646174613a2055524920717565727920666f72206e6f60008301527f6e6578697374656e7420746f6b656e00000000000000000000000000000000006020830152604082019050919050565b60006129c5602183612ed4565b91507f4552433732313a20617070726f76616c20746f2063757272656e74206f776e6560008301527f72000000000000000000000000000000000000000000000000000000000000006020830152604082019050919050565b6000612a2b603183612ed4565b91507f4552433732313a207472616e736665722063616c6c6572206973206e6f74206f60008301527f776e6572206e6f7220617070726f7665640000000000000000000000000000006020830152604082019050919050565b6000612a91602c83612ed4565b91507f455243373231456e756d657261626c653a20676c6f62616c20696e646578206f60008301527f7574206f6620626f756e647300000000000000000000000000000000000000006020830152604082019050919050565b612af381613015565b82525050565b6000612b0582856123ff565b9150612b1182846123ff565b91508190509392505050565b6000602082019050612b32600083018461236f565b92915050565b6000608082019050612b4d600083018761236f565b612b5a602083018661236f565b612b676040830185612aea565b8181036060830152612b79818461238d565b905095945050505050565b6000602082019050612b99600083018461237e565b92915050565b60006020820190508181036000830152612bb981846123c6565b905092915050565b60006020820190508181036000830152612bda81612430565b9050919050565b60006020820190508181036000830152612bfa81612496565b9050919050565b60006020820190508181036000830152612c1a816124fc565b9050919050565b60006020820190508181036000830152612c3a8161253c565b9050919050565b60006020820190508181036000830152612c5a816125a2565b9050919050565b60006020820190508181036000830152612c7a816125e2565b9050919050565b60006020820190508181036000830152612c9a81612648565b9050919050565b60006020820190508181036000830152612cba816126ae565b9050919050565b60006020820190508181036000830152612cda81612714565b9050919050565b60006020820190508181036000830152612cfa8161277a565b9050919050565b60006020820190508181036000830152612d1a816127e0565b9050919050565b60006020820190508181036000830152612d3a81612820565b9050919050565b60006020820190508181036000830152612d5a81612886565b9050919050565b60006020820190508181036000830152612d7a816128ec565b9050919050565b60006020820190508181036000830152612d9a81612952565b9050919050565b60006020820190508181036000830152612dba816129b8565b9050919050565b60006020820190508181036000830152612dda81612a1e565b9050919050565b60006020820190508181036000830152612dfa81612a84565b9050919050565b6000602082019050612e166000830184612aea565b92915050565b6000604051905081810181811067ffffffffffffffff82111715612e4357612e4261319a565b5b8060405250919050565b600067ffffffffffffffff821115612e6857612e6761319a565b5b601f19601f8301169050602081019050919050565b600067ffffffffffffffff821115612e9857612e9761319a565b5b601f19601f8301169050602081019050919050565b600081519050919050565b600081519050919050565b600082825260208201905092915050565b600082825260208201905092915050565b600081905092915050565b6000612efb82613015565b9150612f0683613015565b9250827fffffffffffffffffffffffffffffffffffffffffffffffffffffffffffffffff03821115612f3b57612f3a61310d565b5b828201905092915050565b6000612f5182613015565b9150612f5c83613015565b925082612f6c57612f6b61313c565b5b828204905092915050565b6000612f8282613015565b9150612f8d83613015565b925082821015612fa057612f9f61310d565b5b828203905092915050565b6000612fb682612ff5565b9050919050565b60008115159050919050565b60007fffffffff0000000000000000000000000000000000000000000000000000000082169050919050565b600073ffffffffffffffffffffffffffffffffffffffff82169050919050565b6000819050919050565b82818337600083830152505050565b60005b8381101561304c578082015181840152602081019050613031565b8381111561305b576000848401525b50505050565b6000600282049050600182168061307957607f821691505b6020821081141561308d5761308c61316b565b5b50919050565b600061309e82613015565b91507fffffffffffffffffffffffffffffffffffffffffffffffffffffffffffffffff8214156130d1576130d061310d565b5b600182019050919050565b60006130e782613015565b91506130f283613015565b9250826131025761310161313c565b5b828206905092915050565b7f4e487b7100000000000000000000000000000000000000000000000000000000600052601160045260246000fd5b7f4e487b7100000000000000000000000000000000000000000000000000000000600052601260045260246000fd5b7f4e487b7100000000000000000000000000000000000000000000000000000000600052602260045260246000fd5b7f4e487b7100000000000000000000000000000000000000000000000000000000600052604160045260246000fd5b6000601f19601f8301169050919050565b6131e381612fab565b81146131ee57600080fd5b50565b6131fa81612fbd565b811461320557600080fd5b50565b61321181612fc9565b811461321c57600080fd5b50565b61322881613015565b811461323357600080fd5b5056fea26469706673582212206aa5508fd91085cac132f20fe8fc28e209c2eca0825074d821d9a5c3b4548fb464736f6c63430008000033",
  "linkReferences": {},
  "deployedLinkReferences": {}
}