{
  "_format": "hh-sol-artifact-1",
  "contractName": "PixelNFT",
  "sourceName": "contracts/PixelNFT.sol",
  "abi": [
    {
      "inputs": [],
      "stateMutability": "nonpayable",
      "type": "constructor"
    },
    {
      "anonymous": false,
      "inputs": [
        {
          "indexed": true,
          "internalType": "address",
          "name": "owner",
          "type": "address"
        },
        {
          "indexed": true,
          "internalType": "address",
          "name": "approved",
          "type": "address"
        },
        {
          "indexed": true,
          "internalType": "uint256",
          "name": "tokenId",
          "type": "uint256"
        }
      ],
      "name": "Approval",
      "type": "event"
    },
    {
      "anonymous": false,
      "inputs": [
        {
          "indexed": true,
          "internalType": "address",
          "name": "owner",
          "type": "address"
        },
        {
          "indexed": true,
          "internalType": "address",
          "name": "operator",
          "type": "address"
        },
        {
          "indexed": false,
          "internalType": "bool",
          "name": "approved",
          "type": "bool"
        }
      ],
      "name": "ApprovalForAll",
      "type": "event"
    },
    {
      "anonymous": false,
      "inputs": [
        {
          "indexed": true,
          "internalType": "address",
          "name": "from",
          "type": "address"
        },
        {
          "indexed": true,
          "internalType": "address",
          "name": "to",
          "type": "address"
        },
        {
          "indexed": true,
          "internalType": "uint256",
          "name": "tokenId",
          "type": "uint256"
        }
      ],
      "name": "Transfer",
      "type": "event"
    },
    {
      "inputs": [
        {
          "internalType": "address",
          "name": "to",
          "type": "address"
        },
        {
          "internalType": "uint256",
          "name": "tokenId",
          "type": "uint256"
        }
      ],
      "name": "approve",
      "outputs": [],
      "stateMutability": "nonpayable",
      "type": "function"
    },
    {
      "inputs": [
        {
          "internalType": "address",
          "name": "owner",
          "type": "address"
        }
      ],
      "name": "balanceOf",
      "outputs": [
        {
          "internalType": "uint256",
          "name": "",
          "type": "uint256"
        }
      ],
      "stateMutability": "view",
      "type": "function"
    },
    {
      "inputs": [
        {
          "internalType": "string",
          "name": "_tokenURI",
          "type": "string"
        }
      ],
      "name": "createToken",
      "outputs": [
        {
          "internalType": "uint256",
          "name": "",
          "type": "uint256"
        }
      ],
      "stateMutability": "nonpayable",
      "type": "function"
    },
    {
      "inputs": [
        {
          "internalType": "uint256",
          "name": "tokenId",
          "type": "uint256"
        }
      ],
      "name": "getApproved",
      "outputs": [
        {
          "internalType": "address",
          "name": "",
          "type": "address"
        }
      ],
      "stateMutability": "view",
      "type": "function"
    },
    {
      "inputs": [
        {
          "internalType": "address",
          "name": "owner",
          "type": "address"
        },
        {
          "internalType": "address",
          "name": "operator",
          "type": "address"
        }
      ],
      "name": "isApprovedForAll",
      "outputs": [
        {
          "internalType": "bool",
          "name": "",
          "type": "bool"
        }
      ],
      "stateMutability": "view",
      "type": "function"
    },
    {
      "inputs": [],
      "name": "name",
      "outputs": [
        {
          "internalType": "string",
          "name": "",
          "type": "string"
        }
      ],
      "stateMutability": "view",
      "type": "function"
    },
    {
      "inputs": [
        {
          "internalType": "uint256",
          "name": "tokenId",
          "type": "uint256"
        }
      ],
      "name": "ownerOf",
      "outputs": [
        {
          "internalType": "address",
          "name": "",
          "type": "address"
        }
      ],
      "stateMutability": "view",
      "type": "function"
    },
    {
      "inputs": [
        {
          "internalType": "address",
          "name": "from",
          "type": "address"
        },
        {
          "internalType": "address",
          "name": "to",
          "type": "address"
        },
        {
          "internalType": "uint256",
          "name": "tokenId",
          "type": "uint256"
        }
      ],
      "name": "safeTransferFrom",
      "outputs": [],
      "stateMutability": "nonpayable",
      "type": "function"
    },
    {
      "inputs": [
        {
          "internalType": "address",
          "name": "from",
          "type": "address"
        },
        {
          "internalType": "address",
          "name": "to",
          "type": "address"
        },
        {
          "internalType": "uint256",
          "name": "tokenId",
          "type": "uint256"
        },
        {
          "internalType": "bytes",
          "name": "_data",
          "type": "bytes"
        }
      ],
      "name": "safeTransferFrom",
      "outputs": [],
      "stateMutability": "nonpayable",
      "type": "function"
    },
    {
      "inputs": [
        {
          "internalType": "address",
          "name": "operator",
          "type": "address"
        },
        {
          "internalType": "bool",
          "name": "approved",
          "type": "bool"
        }
      ],
      "name": "setApprovalForAll",
      "outputs": [],
      "stateMutability": "nonpayable",
      "type": "function"
    },
    {
      "inputs": [
        {
          "internalType": "bytes4",
          "name": "interfaceId",
          "type": "bytes4"
        }
      ],
      "name": "supportsInterface",
      "outputs": [
        {
          "internalType": "bool",
          "name": "",
          "type": "bool"
        }
      ],
      "stateMutability": "view",
      "type": "function"
    },
    {
      "inputs": [],
      "name": "symbol",
      "outputs": [
        {
          "internalType": "string",
          "name": "",
          "type": "string"
        }
      ],
      "stateMutability": "view",
      "type": "function"
    },
    {
      "inputs": [
        {
          "internalType": "uint256",
          "name": "index",
          "type": "uint256"
        }
      ],
      "name": "tokenByIndex",
      "outputs": [
        {
          "internalType": "uint256",
          "name": "",
          "type": "uint256"
        }
      ],
      "stateMutability": "view",
      "type": "function"
    },
    {
      "inputs": [
        {
          "internalType": "address",
          "name": "owner",
          "type": "address"
        },
        {
          "internalType": "uint256",
          "name": "index",
          "type": "uint256"
        }
      ],
      "name": "tokenOfOwnerByIndex",
      "outputs": [
        {
          "internalType": "uint256",
          "name": "",
          "type": "uint256"
        }
      ],
      "stateMutability": "view",
      "type": "function"
    },
    {
      "inputs": [
        {
          "internalType": "uint256",
          "name": "tokenId",
          "type": "uint256"
        }
      ],
      "name": "tokenURI",
      "outputs": [
        {
          "internalType": "string",
          "name": "",
          "type": "string"
        }
      ],
      "stateMutability": "view",
      "type": "function"
    },
    {
      "inputs": [],
      "name": "totalSupply",
      "outputs": [
        {
          "internalType": "uint256",
          "name": "",
          "type": "uint256"
        }
      ],
      "stateMutability": "view",
      "type": "function"
    },
    {
      "inputs": [
        {
          "internalType": "address",
          "name": "from",
          "type": "address"
        },
        {
          "internalType": "address",
          "name": "to",
          "type": "address"
        },
        {
          "internalType": "uint256",
          "name": "tokenId",
          "type": "uint256"
        }
      ],
      "name": "transferFrom",
      "outputs": [],
      "stateMutability": "nonpayable",
      "type": "function"
    }
  ],
  "bytecode": "0x60806040523480156200001157600080fd5b506040518060400160405280600881526020017f506978656c4e46540000000000000000000000000000000000000000000000008152506040518060400160405280600681526020017f5049584e46540000000000000000000000000000000000000000000000000000815250816000908051906020019062000096929190620000b8565b508060019080519060200190620000af929190620000b8565b505050620001cd565b828054620000c69062000168565b90600052602060002090601f016020900481019282620000ea576000855562000136565b82601f106200010557805160ff191683800117855562000136565b8280016001018555821562000136579182015b828111156200013557825182559160200191906001019062000118565b5b50905062000145919062000149565b5090565b5b80821115620001645760008160009055506001016200014a565b5090565b600060028204905060018216806200018157607f821691505b602082108114156200019857620001976200019e565b5b50919050565b7f4e487b7100000000000000000000000000000000000000000000000000000000600052602260045260246000fd5b61326d80620001dd6000396000f3fe608060405234801561001057600080fd5b506004361061010b5760003560e01c806345576f94116100a257806395d89b411161007157806395d89b41146102f0578063a22cb4651461030e578063b88d4fde1461032a578063c87b56dd14610346578063e985e9c5146103765761010b565b806345576f94146102305780634f6ccce7146102605780636352211e1461029057806370a08231146102c05761010b565b806318160ddd116100de57806318160ddd146101aa57806323b872dd146101c85780632f745c59146101e457806342842e0e146102145761010b565b806301ffc9a71461011057806306fdde0314610140578063081812fc1461015e578063095ea7b31461018e575b600080fd5b61012a600480360381019061012591906122b4565b6103a6565b6040516101379190612b85565b60405180910390f35b610148610420565b6040516101559190612ba0565b60405180910390f35b61017860048036038101906101739190612347565b6104b2565b6040516101859190612b1e565b60405180910390f35b6101a860048036038101906101a39190612278565b610537565b005b6101b261064f565b6040516101bf9190612e02565b60405180910390f35b6101e260048036038101906101dd9190612172565b61065c565b005b6101fe60048036038101906101f99190612278565b6106bc565b60405161020b9190612e02565b60405180910390f35b61022e60048036038101906102299190612172565b610761565b005b61024a60048036038101906102459190612306565b610781565b6040516102579190612e02565b60405180910390f35b61027a60048036038101906102759190612347565b6107b8565b6040516102879190612e02565b60405180910390f35b6102aa60048036038101906102a59190612347565b61084f565b6040516102b79190612b1e565b60405180910390f35b6102da60048036038101906102d5919061210d565b610901565b6040516102e79190612e02565b60405180910390f35b6102f86109b9565b6040516103059190612ba0565b60405180910390f35b6103286004803603810190610323919061223c565b610a4b565b005b610344600480360381019061033f91906121c1565b610a61565b005b610360600480360381019061035b9190612347565b610ac3565b60405161036d9190612ba0565b60405180910390f35b610390600480360381019061038b9190612136565b610c15565b60405161039d9190612b85565b60405180910390f35b60007f780e9d63000000000000000000000000000000000000000000000000000000007bffffffffffffffffffffffffffffffffffffffffffffffffffffffff1916827bffffffffffffffffffffffffffffffffffffffffffffffffffffffff19161480610419575061041882610ca9565b5b9050919050565b60606000805461042f90613062565b80601f016020809104026020016040519081016040528092919081815260200182805461045b90613062565b80156104a85780601f1061047d576101008083540402835291602001916104a8565b820191906000526020600020905b81548152906001019060200180831161048b57829003601f168201915b5050505050905090565b60006104bd82610d8b565b6104fc576040517f08c379a00000000000000000000000000000000000000000000000000000000081526004016104f390612d42565b60405180910390fd5b6004600083815260200190815260200160002060009054906101000a900473ffffffffffffffffffffffffffffffffffffffff169050919050565b60006105428261084f565b90508073ffffffffffffffffffffffffffffffffffffffff168373ffffffffffffffffffffffffffffffffffffffff1614156105b3576040517f08c379a00000000000000000000000000000000000000000000000000000000081526004016105aa90612da2565b60405180910390fd5b8073ffffffffffffffffffffffffffffffffffffffff166105d2610df7565b73ffffffffffffffffffffffffffffffffffffffff1614806106015750610600816105fb610df7565b610c15565b5b610640576040517f08c379a000000000000000000000000000000000000000000000000000000000815260040161063790612c82565b60405180910390fd5b61064a8383610dff565b505050565b6000600880549050905090565b61066d610667610df7565b82610eb8565b6106ac576040517f08c379a00000000000000000000000000000000000000000000000000000000081526004016106a390612dc2565b60405180910390fd5b6106b7838383610f96565b505050565b60006106c783610901565b8210610708576040517f08c379a00000000000000000000000000000000000000000000000000000000081526004016106ff90612bc2565b60405180910390fd5b600660008473ffffffffffffffffffffffffffffffffffffffff1673ffffffffffffffffffffffffffffffffffffffff168152602001908152602001600020600083815260200190815260200160002054905092915050565b61077c83838360405180602001604052806000815250610a61565b505050565b600061078d600a6111f2565b6000610799600a611208565b90506107a53382611216565b6107af81846113e4565b80915050919050565b60006107c261064f565b8210610803576040517f08c379a00000000000000000000000000000000000000000000000000000000081526004016107fa90612de2565b60405180910390fd5b6008828154811061083d577f4e487b7100000000000000000000000000000000000000000000000000000000600052603260045260246000fd5b90600052602060002001549050919050565b6000806002600084815260200190815260200160002060009054906101000a900473ffffffffffffffffffffffffffffffffffffffff169050600073ffffffffffffffffffffffffffffffffffffffff168173ffffffffffffffffffffffffffffffffffffffff1614156108f8576040517f08c379a00000000000000000000000000000000000000000000000000000000081526004016108ef90612cc2565b60405180910390fd5b80915050919050565b60008073ffffffffffffffffffffffffffffffffffffffff168273ffffffffffffffffffffffffffffffffffffffff161415610972576040517f08c379a000000000000000000000000000000000000000000000000000000000815260040161096990612ca2565b60405180910390fd5b600360008373ffffffffffffffffffffffffffffffffffffffff1673ffffffffffffffffffffffffffffffffffffffff168152602001908152602001600020549050919050565b6060600180546109c890613062565b80601f01602080910402602001604051908101604052809291908181526020018280546109f490613062565b8015610a415780601f10610a1657610100808354040283529160200191610a41565b820191906000526020600020905b815481529060010190602001808311610a2457829003601f168201915b5050505050905090565b610a5d610a56610df7565b8383611458565b5050565b610a72610a6c610df7565b83610eb8565b610ab1576040517f08c379a0000000000000000000000000000000000000000000000000000000008152600401610aa890612dc2565b60405180910390fd5b610abd848484846115c5565b50505050565b6060610ace82610d8b565b610b0d576040517f08c379a0000000000000000000000000000000000000000000000000000000008152600401610b0490612d22565b60405180910390fd5b6000600b60008481526020019081526020016000208054610b2d90613062565b80601f0160208091040260200160405190810160405280929190818152602001828054610b5990613062565b8015610ba65780601f10610b7b57610100808354040283529160200191610ba6565b820191906000526020600020905b815481529060010190602001808311610b8957829003601f168201915b505050505090506000610bb7611621565b9050600081511415610bcd578192505050610c10565b600082511115610c02578082604051602001610bea929190612afa565b60405160208183030381529060405292505050610c10565b610c0b84611638565b925050505b919050565b6000600560008473ffffffffffffffffffffffffffffffffffffffff1673ffffffffffffffffffffffffffffffffffffffff16815260200190815260200160002060008373ffffffffffffffffffffffffffffffffffffffff1673ffffffffffffffffffffffffffffffffffffffff16815260200190815260200160002060009054906101000a900460ff16905092915050565b60007f80ac58cd000000000000000000000000000000000000000000000000000000007bffffffffffffffffffffffffffffffffffffffffffffffffffffffff1916827bffffffffffffffffffffffffffffffffffffffffffffffffffffffff19161480610d7457507f5b5e139f000000000000000000000000000000000000000000000000000000007bffffffffffffffffffffffffffffffffffffffffffffffffffffffff1916827bffffffffffffffffffffffffffffffffffffffffffffffffffffffff1916145b80610d845750610d83826116df565b5b9050919050565b60008073ffffffffffffffffffffffffffffffffffffffff166002600084815260200190815260200160002060009054906101000a900473ffffffffffffffffffffffffffffffffffffffff1673ffffffffffffffffffffffffffffffffffffffff1614159050919050565b600033905090565b816004600083815260200190815260200160002060006101000a81548173ffffffffffffffffffffffffffffffffffffffff021916908373ffffffffffffffffffffffffffffffffffffffff160217905550808273ffffffffffffffffffffffffffffffffffffffff16610e728361084f565b73ffffffffffffffffffffffffffffffffffffffff167f8c5be1e5ebec7d5bd14f71427d1e84f3dd0314c0f7b2291e5b200ac8c7c3b92560405160405180910390a45050565b6000610ec382610d8b565b610f02576040517f08c379a0000000000000000000000000000000000000000000000000000000008152600401610ef990612c62565b60405180910390fd5b6000610f0d8361084f565b90508073ffffffffffffffffffffffffffffffffffffffff168473ffffffffffffffffffffffffffffffffffffffff161480610f7c57508373ffffffffffffffffffffffffffffffffffffffff16610f64846104b2565b73ffffffffffffffffffffffffffffffffffffffff16145b80610f8d5750610f8c8185610c15565b5b91505092915050565b8273ffffffffffffffffffffffffffffffffffffffff16610fb68261084f565b73ffffffffffffffffffffffffffffffffffffffff161461100c576040517f08c379a000000000000000000000000000000000000000000000000000000000815260040161100390612d62565b60405180910390fd5b600073ffffffffffffffffffffffffffffffffffffffff168273ffffffffffffffffffffffffffffffffffffffff16141561107c576040517f08c379a000000000000000000000000000000000000000000000000000000000815260040161107390612c22565b60405180910390fd5b611087838383611749565b611092600082610dff565b6001600360008573ffffffffffffffffffffffffffffffffffffffff1673ffffffffffffffffffffffffffffffffffffffff16815260200190815260200160002060008282546110e29190612f78565b925050819055506001600360008473ffffffffffffffffffffffffffffffffffffffff1673ffffffffffffffffffffffffffffffffffffffff16815260200190815260200160002060008282546111399190612ef1565b92505081905550816002600083815260200190815260200160002060006101000a81548173ffffffffffffffffffffffffffffffffffffffff021916908373ffffffffffffffffffffffffffffffffffffffff160217905550808273ffffffffffffffffffffffffffffffffffffffff168473ffffffffffffffffffffffffffffffffffffffff167fddf252ad1be2c89b69c2b068fc378daa952ba7f163c4a11628f55a4df523b3ef60405160405180910390a4505050565b6001816000016000828254019250508190555050565b600081600001549050919050565b600073ffffffffffffffffffffffffffffffffffffffff168273ffffffffffffffffffffffffffffffffffffffff161415611286576040517f08c379a000000000000000000000000000000000000000000000000000000000815260040161127d90612d02565b60405180910390fd5b61128f81610d8b565b156112cf576040517f08c379a00000000000000000000000000000000000000000000000000000000081526004016112c690612c02565b60405180910390fd5b6112db60008383611749565b6001600360008473ffffffffffffffffffffffffffffffffffffffff1673ffffffffffffffffffffffffffffffffffffffff168152602001908152602001600020600082825461132b9190612ef1565b92505081905550816002600083815260200190815260200160002060006101000a81548173ffffffffffffffffffffffffffffffffffffffff021916908373ffffffffffffffffffffffffffffffffffffffff160217905550808273ffffffffffffffffffffffffffffffffffffffff16600073ffffffffffffffffffffffffffffffffffffffff167fddf252ad1be2c89b69c2b068fc378daa952ba7f163c4a11628f55a4df523b3ef60405160405180910390a45050565b6113ed82610d8b565b61142c576040517f08c379a000000000000000000000000000000000000000000000000000000000815260040161142390612ce2565b60405180910390fd5b80600b60008481526020019081526020016000209080519060200190611453929190611f31565b505050565b8173ffffffffffffffffffffffffffffffffffffffff168373ffffffffffffffffffffffffffffffffffffffff1614156114c7576040517f08c379a00000000000000000000000000000000000000000000000000000000081526004016114be90612c42565b60405180910390fd5b80600560008573ffffffffffffffffffffffffffffffffffffffff1673ffffffffffffffffffffffffffffffffffffffff16815260200190815260200160002060008473ffffffffffffffffffffffffffffffffffffffff1673ffffffffffffffffffffffffffffffffffffffff16815260200190815260200160002060006101000a81548160ff0219169083151502179055508173ffffffffffffffffffffffffffffffffffffffff168373ffffffffffffffffffffffffffffffffffffffff167f17307eab39ab6107e8899845ad3d59bd9653f200f220920489ca2b5937696c31836040516115b89190612b85565b60405180910390a3505050565b6115d0848484610f96565b6115dc8484848461185d565b61161b576040517f08c379a000000000000000000000000000000000000000000000000000000000815260040161161290612be2565b60405180910390fd5b50505050565b606060405180602001604052806000815250905090565b606061164382610d8b565b611682576040517f08c379a000000000000000000000000000000000000000000000000000000000815260040161167990612d82565b60405180910390fd5b600061168c611621565b905060008151116116ac57604051806020016040528060008152506116d7565b806116b6846119f4565b6040516020016116c7929190612afa565b6040516020818303038152906040525b915050919050565b60007f01ffc9a7000000000000000000000000000000000000000000000000000000007bffffffffffffffffffffffffffffffffffffffffffffffffffffffff1916827bffffffffffffffffffffffffffffffffffffffffffffffffffffffff1916149050919050565b611754838383611ba1565b600073ffffffffffffffffffffffffffffffffffffffff168373ffffffffffffffffffffffffffffffffffffffff1614156117975761179281611ba6565b6117d6565b8173ffffffffffffffffffffffffffffffffffffffff168373ffffffffffffffffffffffffffffffffffffffff16146117d5576117d48382611bef565b5b5b600073ffffffffffffffffffffffffffffffffffffffff168273ffffffffffffffffffffffffffffffffffffffff1614156118195761181481611d5c565b611858565b8273ffffffffffffffffffffffffffffffffffffffff168273ffffffffffffffffffffffffffffffffffffffff1614611857576118568282611e9f565b5b5b505050565b600061187e8473ffffffffffffffffffffffffffffffffffffffff16611f1e565b156119e7578373ffffffffffffffffffffffffffffffffffffffff1663150b7a026118a7610df7565b8786866040518563ffffffff1660e01b81526004016118c99493929190612b39565b602060405180830381600087803b1580156118e357600080fd5b505af192505050801561191457506040513d601f19601f8201168201806040525081019061191191906122dd565b60015b611997573d8060008114611944576040519150601f19603f3d011682016040523d82523d6000602084013e611949565b606091505b5060008151141561198f576040517f08c379a000000000000000000000000000000000000000000000000000000000815260040161198690612be2565b60405180910390fd5b805181602001fd5b63150b7a0260e01b7bffffffffffffffffffffffffffffffffffffffffffffffffffffffff1916817bffffffffffffffffffffffffffffffffffffffffffffffffffffffff1916149150506119ec565b600190505b949350505050565b60606000821415611a3c576040518060400160405280600181526020017f30000000000000000000000000000000000000000000000000000000000000008152509050611b9c565b600082905060005b60008214611a6e578080611a5790613094565b915050600a82611a679190612f47565b9150611a44565b60008167ffffffffffffffff811115611ab0577f4e487b7100000000000000000000000000000000000000000000000000000000600052604160045260246000fd5b6040519080825280601f01601f191660200182016040528015611ae25781602001600182028036833780820191505090505b5090505b60008514611b9557600182611afb9190612f78565b9150600a85611b0a91906130dd565b6030611b169190612ef1565b60f81b818381518110611b52577f4e487b7100000000000000000000000000000000000000000000000000000000600052603260045260246000fd5b60200101907effffffffffffffffffffffffffffffffffffffffffffffffffffffffffffff1916908160001a905350600a85611b8e9190612f47565b9450611ae6565b8093505050505b919050565b505050565b6008805490506009600083815260200190815260200160002081905550600881908060018154018082558091505060019003906000526020600020016000909190919091505550565b60006001611bfc84610901565b611c069190612f78565b9050600060076000848152602001908152602001600020549050818114611ceb576000600660008673ffffffffffffffffffffffffffffffffffffffff1673ffffffffffffffffffffffffffffffffffffffff168152602001908152602001600020600084815260200190815260200160002054905080600660008773ffffffffffffffffffffffffffffffffffffffff1673ffffffffffffffffffffffffffffffffffffffff168152602001908152602001600020600084815260200190815260200160002081905550816007600083815260200190815260200160002081905550505b6007600084815260200190815260200160002060009055600660008573ffffffffffffffffffffffffffffffffffffffff1673ffffffffffffffffffffffffffffffffffffffff16815260200190815260200160002060008381526020019081526020016000206000905550505050565b60006001600880549050611d709190612f78565b9050600060096000848152602001908152602001600020549050600060088381548110611dc6577f4e487b7100000000000000000000000000000000000000000000000000000000600052603260045260246000fd5b906000526020600020015490508060088381548110611e0e577f4e487b7100000000000000000000000000000000000000000000000000000000600052603260045260246000fd5b906000526020600020018190555081600960008381526020019081526020016000208190555060096000858152602001908152602001600020600090556008805480611e83577f4e487b7100000000000000000000000000000000000000000000000000000000600052603160045260246000fd5b6001900381819060005260206000200160009055905550505050565b6000611eaa83610901565b905081600660008573ffffffffffffffffffffffffffffffffffffffff1673ffffffffffffffffffffffffffffffffffffffff168152602001908152602001600020600083815260200190815260200160002081905550806007600084815260200190815260200160002081905550505050565b600080823b905060008111915050919050565b828054611f3d90613062565b90600052602060002090601f016020900481019282611f5f5760008555611fa6565b82601f10611f7857805160ff1916838001178555611fa6565b82800160010185558215611fa6579182015b82811115611fa5578251825591602001919060010190611f8a565b5b509050611fb39190611fb7565b5090565b5b80821115611fd0576000816000905550600101611fb8565b5090565b6000611fe7611fe284612e4e565b612e1d565b905082815260208101848484011115611fff57600080fd5b61200a848285613020565b509392505050565b600061202561202084612e7e565b612e1d565b90508281526020810184848401111561203d57600080fd5b612048848285613020565b509392505050565b60008135905061205f816131db565b92915050565b600081359050612074816131f2565b92915050565b60008135905061208981613209565b92915050565b60008151905061209e81613209565b92915050565b600082601f8301126120b557600080fd5b81356120c5848260208601611fd4565b91505092915050565b600082601f8301126120df57600080fd5b81356120ef848260208601612012565b91505092915050565b60008135905061210781613220565b92915050565b60006020828403121561211f57600080fd5b600061212d84828501612050565b91505092915050565b6000806040838503121561214957600080fd5b600061215785828601612050565b925050602061216885828601612050565b9150509250929050565b60008060006060848603121561218757600080fd5b600061219586828701612050565b93505060206121a686828701612050565b92505060406121b7868287016120f8565b9150509250925092565b600080600080608085870312156121d757600080fd5b60006121e587828801612050565b94505060206121f687828801612050565b9350506040612207878288016120f8565b925050606085013567ffffffffffffffff81111561222457600080fd5b612230878288016120a4565b91505092959194509250565b6000806040838503121561224f57600080fd5b600061225d85828601612050565b925050602061226e85828601612065565b9150509250929050565b6000806040838503121561228b57600080fd5b600061229985828601612050565b92505060206122aa858286016120f8565b9150509250929050565b6000602082840312156122c657600080fd5b60006122d48482850161207a565b91505092915050565b6000602082840312156122ef57600080fd5b60006122fd8482850161208f565b91505092915050565b60006020828403121561231857600080fd5b600082013567ffffffffffffffff81111561233257600080fd5b61233e848285016120ce565b91505092915050565b60006020828403121561235957600080fd5b6000612367848285016120f8565b91505092915050565b61237981612fac565b82525050565b61238881612fbe565b82525050565b600061239982612eae565b6123a38185612ec4565b93506123b381856020860161302f565b6123bc816131ca565b840191505092915050565b60006123d282612eb9565b6123dc8185612ed5565b93506123ec81856020860161302f565b6123f5816131ca565b840191505092915050565b600061240b82612eb9565b6124158185612ee6565b935061242581856020860161302f565b80840191505092915050565b600061243e602b83612ed5565b91507f455243373231456e756d657261626c653a206f776e657220696e646578206f7560008301527f74206f6620626f756e64730000000000000000000000000000000000000000006020830152604082019050919050565b60006124a4603283612ed5565b91507f4552433732313a207472616e7366657220746f206e6f6e20455243373231526560008301527f63656976657220696d706c656d656e74657200000000000000000000000000006020830152604082019050919050565b600061250a601c83612ed5565b91507f4552433732313a20746f6b656e20616c7265616479206d696e746564000000006000830152602082019050919050565b600061254a602483612ed5565b91507f4552433732313a207472616e7366657220746f20746865207a65726f2061646460008301527f72657373000000000000000000000000000000000000000000000000000000006020830152604082019050919050565b60006125b0601983612ed5565b91507f4552433732313a20617070726f766520746f2063616c6c6572000000000000006000830152602082019050919050565b60006125f0602c83612ed5565b91507f4552433732313a206f70657261746f7220717565727920666f72206e6f6e657860008301527f697374656e7420746f6b656e00000000000000000000000000000000000000006020830152604082019050919050565b6000612656603883612ed5565b91507f4552433732313a20617070726f76652063616c6c6572206973206e6f74206f7760008301527f6e6572206e6f7220617070726f76656420666f7220616c6c00000000000000006020830152604082019050919050565b60006126bc602a83612ed5565b91507f4552433732313a2062616c616e636520717565727920666f7220746865207a6560008301527f726f2061646472657373000000000000000000000000000000000000000000006020830152604082019050919050565b6000612722602983612ed5565b91507f4552433732313a206f776e657220717565727920666f72206e6f6e657869737460008301527f656e7420746f6b656e00000000000000000000000000000000000000000000006020830152604082019050919050565b6000612788602e83612ed5565b91507f45524337323155524953746f726167653a2055524920736574206f66206e6f6e60008301527f6578697374656e7420746f6b656e0000000000000000000000000000000000006020830152604082019050919050565b60006127ee602083612ed5565b91507f4552433732313a206d696e7420746f20746865207a65726f20616464726573736000830152602082019050919050565b600061282e603183612ed5565b91507f45524337323155524953746f726167653a2055524920717565727920666f722060008301527f6e6f6e6578697374656e7420746f6b656e0000000000000000000000000000006020830152604082019050919050565b6000612894602c83612ed5565b91507f4552433732313a20617070726f76656420717565727920666f72206e6f6e657860008301527f697374656e7420746f6b656e00000000000000000000000000000000000000006020830152604082019050919050565b60006128fa602983612ed5565b91507f4552433732313a207472616e73666572206f6620746f6b656e2074686174206960008301527f73206e6f74206f776e00000000000000000000000000000000000000000000006020830152604082019050919050565b6000612960602f83612ed5565b91507f4552433732314d657461646174613a2055524920717565727920666f72206e6f60008301527f6e6578697374656e7420746f6b656e00000000000000000000000000000000006020830152604082019050919050565b60006129c6602183612ed5565b91507f4552433732313a20617070726f76616c20746f2063757272656e74206f776e6560008301527f72000000000000000000000000000000000000000000000000000000000000006020830152604082019050919050565b6000612a2c603183612ed5565b91507f4552433732313a207472616e736665722063616c6c6572206973206e6f74206f60008301527f776e6572206e6f7220617070726f7665640000000000000000000000000000006020830152604082019050919050565b6000612a92602c83612ed5565b91507f455243373231456e756d657261626c653a20676c6f62616c20696e646578206f60008301527f7574206f6620626f756e647300000000000000000000000000000000000000006020830152604082019050919050565b612af481613016565b82525050565b6000612b068285612400565b9150612b128284612400565b91508190509392505050565b6000602082019050612b336000830184612370565b92915050565b6000608082019050612b4e6000830187612370565b612b5b6020830186612370565b612b686040830185612aeb565b8181036060830152612b7a818461238e565b905095945050505050565b6000602082019050612b9a600083018461237f565b92915050565b60006020820190508181036000830152612bba81846123c7565b905092915050565b60006020820190508181036000830152612bdb81612431565b9050919050565b60006020820190508181036000830152612bfb81612497565b9050919050565b60006020820190508181036000830152612c1b816124fd565b9050919050565b60006020820190508181036000830152612c3b8161253d565b9050919050565b60006020820190508181036000830152612c5b816125a3565b9050919050565b60006020820190508181036000830152612c7b816125e3565b9050919050565b60006020820190508181036000830152612c9b81612649565b9050919050565b60006020820190508181036000830152612cbb816126af565b9050919050565b60006020820190508181036000830152612cdb81612715565b9050919050565b60006020820190508181036000830152612cfb8161277b565b9050919050565b60006020820190508181036000830152612d1b816127e1565b9050919050565b60006020820190508181036000830152612d3b81612821565b9050919050565b60006020820190508181036000830152612d5b81612887565b9050919050565b60006020820190508181036000830152612d7b816128ed565b9050919050565b60006020820190508181036000830152612d9b81612953565b9050919050565b60006020820190508181036000830152612dbb816129b9565b9050919050565b60006020820190508181036000830152612ddb81612a1f565b9050919050565b60006020820190508181036000830152612dfb81612a85565b9050919050565b6000602082019050612e176000830184612aeb565b92915050565b6000604051905081810181811067ffffffffffffffff82111715612e4457612e4361319b565b5b8060405250919050565b600067ffffffffffffffff821115612e6957612e6861319b565b5b601f19601f8301169050602081019050919050565b600067ffffffffffffffff821115612e9957612e9861319b565b5b601f19601f8301169050602081019050919050565b600081519050919050565b600081519050919050565b600082825260208201905092915050565b600082825260208201905092915050565b600081905092915050565b6000612efc82613016565b9150612f0783613016565b9250827fffffffffffffffffffffffffffffffffffffffffffffffffffffffffffffffff03821115612f3c57612f3b61310e565b5b828201905092915050565b6000612f5282613016565b9150612f5d83613016565b925082612f6d57612f6c61313d565b5b828204905092915050565b6000612f8382613016565b9150612f8e83613016565b925082821015612fa157612fa061310e565b5b828203905092915050565b6000612fb782612ff6565b9050919050565b60008115159050919050565b60007fffffffff0000000000000000000000000000000000000000000000000000000082169050919050565b600073ffffffffffffffffffffffffffffffffffffffff82169050919050565b6000819050919050565b82818337600083830152505050565b60005b8381101561304d578082015181840152602081019050613032565b8381111561305c576000848401525b50505050565b6000600282049050600182168061307a57607f821691505b6020821081141561308e5761308d61316c565b5b50919050565b600061309f82613016565b91507fffffffffffffffffffffffffffffffffffffffffffffffffffffffffffffffff8214156130d2576130d161310e565b5b600182019050919050565b60006130e882613016565b91506130f383613016565b9250826131035761310261313d565b5b828206905092915050565b7f4e487b7100000000000000000000000000000000000000000000000000000000600052601160045260246000fd5b7f4e487b7100000000000000000000000000000000000000000000000000000000600052601260045260246000fd5b7f4e487b7100000000000000000000000000000000000000000000000000000000600052602260045260246000fd5b7f4e487b7100000000000000000000000000000000000000000000000000000000600052604160045260246000fd5b6000601f19601f8301169050919050565b6131e481612fac565b81146131ef57600080fd5b50565b6131fb81612fbe565b811461320657600080fd5b50565b61321281612fca565b811461321d57600080fd5b50565b61322981613016565b811461323457600080fd5b5056fea2646970667358221220be39e57332f3667b38753c843e311ad1e5ad6b7f1eff90d5f0ee10be292fdd8364736f6c63430008000033",
  "linkReferences": {},
  "deployedLinkReferences": {}
}