{
  "_format": "hh-sol-artifact-1",
  "contractName": "PixelMarketplace",
  "sourceName": "contracts/PixelMarketplace.sol",
  "abi": [
    {
      "inputs": [
        {
          "internalType": "address",
          "name": "_NFTContractAddress",
          "type": "address"
        },
        {
          "internalType": "address",
          "name": "_tokenContractAddress",
          "type": "address"
        }
      ],
      "stateMutability": "nonpayable",
      "type": "constructor"
    },
    {
      "anonymous": false,
      "inputs": [
        {
          "indexed": false,
          "internalType": "uint256",
          "name": "authorCount",
          "type": "uint256"
        },
        {
          "indexed": false,
          "internalType": "address",
          "name": "_authorWalletAddress",
          "type": "address"
        },
        {
          "indexed": false,
          "internalType": "string",
          "name": "_authorName",
          "type": "string"
        },
        {
          "indexed": false,
          "internalType": "string",
          "name": "_authorEmail",
          "type": "string"
        },
        {
          "indexed": false,
          "internalType": "bool",
          "name": "isActive",
          "type": "bool"
        }
      ],
      "name": "AuthorUpdate",
      "type": "event"
    },
    {
      "anonymous": false,
      "inputs": [
        {
          "indexed": false,
          "internalType": "address",
          "name": "_authorId",
          "type": "address"
        },
        {
          "indexed": false,
          "internalType": "uint256",
          "name": "_listingId",
          "type": "uint256"
        },
        {
          "indexed": false,
          "internalType": "uint256",
          "name": "value",
          "type": "uint256"
        }
      ],
      "name": "ListingCreated",
      "type": "event"
    },
    {
      "inputs": [
        {
          "internalType": "uint256",
          "name": "",
          "type": "uint256"
        }
      ],
      "name": "authorAddressList",
      "outputs": [
        {
          "internalType": "address",
          "name": "",
          "type": "address"
        }
      ],
      "stateMutability": "view",
      "type": "function"
    },
    {
      "inputs": [],
      "name": "authorCount",
      "outputs": [
        {
          "internalType": "uint256",
          "name": "_value",
          "type": "uint256"
        }
      ],
      "stateMutability": "view",
      "type": "function"
    },
    {
      "inputs": [
        {
          "internalType": "address",
          "name": "",
          "type": "address"
        }
      ],
      "name": "authors",
      "outputs": [
        {
          "internalType": "address",
          "name": "authorWallet",
          "type": "address"
        },
        {
          "internalType": "string",
          "name": "authorName",
          "type": "string"
        },
        {
          "internalType": "string",
          "name": "authorEmail",
          "type": "string"
        },
        {
          "internalType": "bool",
          "name": "isActive",
          "type": "bool"
        },
        {
          "internalType": "bool",
          "name": "exists",
          "type": "bool"
        }
      ],
      "stateMutability": "view",
      "type": "function"
    },
    {
      "inputs": [
        {
          "internalType": "uint256",
          "name": "_tokenId",
          "type": "uint256"
        },
        {
          "internalType": "uint256",
          "name": "_value",
          "type": "uint256"
        }
      ],
      "name": "createListing",
      "outputs": [
        {
          "internalType": "uint256",
          "name": "",
          "type": "uint256"
        }
      ],
      "stateMutability": "nonpayable",
      "type": "function"
    },
    {
      "inputs": [],
      "name": "getAllAvailableListingIds",
      "outputs": [
        {
          "internalType": "uint256[]",
          "name": "",
          "type": "uint256[]"
        }
      ],
      "stateMutability": "view",
      "type": "function"
    },
    {
      "inputs": [],
      "name": "getMyListingsIds",
      "outputs": [
        {
          "internalType": "uint256[]",
          "name": "",
          "type": "uint256[]"
        }
      ],
      "stateMutability": "view",
      "type": "function"
    },
    {
      "inputs": [],
      "name": "isAdmin",
      "outputs": [
        {
          "internalType": "bool",
          "name": "",
          "type": "bool"
        }
      ],
      "stateMutability": "view",
      "type": "function"
    },
    {
      "inputs": [
        {
          "internalType": "address",
          "name": "_walletAddress",
          "type": "address"
        }
      ],
      "name": "isAuthor",
      "outputs": [
        {
          "internalType": "bool",
          "name": "",
          "type": "bool"
        }
      ],
      "stateMutability": "view",
      "type": "function"
    },
    {
      "inputs": [
        {
          "internalType": "uint256",
          "name": "listingId",
          "type": "uint256"
        }
      ],
      "name": "listingIdToTokenId",
      "outputs": [
        {
          "internalType": "uint256",
          "name": "",
          "type": "uint256"
        }
      ],
      "stateMutability": "view",
      "type": "function"
    },
    {
      "inputs": [],
      "name": "listingIds",
      "outputs": [
        {
          "internalType": "uint256",
          "name": "_value",
          "type": "uint256"
        }
      ],
      "stateMutability": "view",
      "type": "function"
    },
    {
      "inputs": [
        {
          "internalType": "uint256",
          "name": "",
          "type": "uint256"
        }
      ],
      "name": "listings",
      "outputs": [
        {
          "internalType": "uint256",
          "name": "id",
          "type": "uint256"
        },
        {
          "internalType": "address",
          "name": "author",
          "type": "address"
        },
        {
          "internalType": "uint256",
          "name": "tokenId",
          "type": "uint256"
        },
        {
          "internalType": "uint256",
          "name": "value",
          "type": "uint256"
        },
        {
          "internalType": "enum ListingStatus",
          "name": "status",
          "type": "uint8"
        }
      ],
      "stateMutability": "view",
      "type": "function"
    },
    {
      "inputs": [],
      "name": "name",
      "outputs": [
        {
          "internalType": "string",
          "name": "",
          "type": "string"
        }
      ],
      "stateMutability": "pure",
      "type": "function"
    },
    {
      "inputs": [
        {
          "internalType": "address",
          "name": "operator",
          "type": "address"
        },
        {
          "internalType": "address",
          "name": "from",
          "type": "address"
        },
        {
          "internalType": "uint256",
          "name": "tokenId",
          "type": "uint256"
        },
        {
          "internalType": "bytes",
          "name": "data",
          "type": "bytes"
        }
      ],
      "name": "onERC721Received",
      "outputs": [
        {
          "internalType": "bytes4",
          "name": "",
          "type": "bytes4"
        }
      ],
      "stateMutability": "nonpayable",
      "type": "function"
    },
    {
      "inputs": [
        {
          "internalType": "uint256",
          "name": "_listingId",
          "type": "uint256"
        }
      ],
      "name": "removeListing",
      "outputs": [],
      "stateMutability": "nonpayable",
      "type": "function"
    },
    {
      "inputs": [
        {
          "internalType": "string",
          "name": "_authorName",
          "type": "string"
        },
        {
          "internalType": "string",
          "name": "_authorEmail",
          "type": "string"
        }
      ],
      "name": "requestAuthorship",
      "outputs": [],
      "stateMutability": "nonpayable",
      "type": "function"
    },
    {
      "inputs": [
        {
          "internalType": "address",
          "name": "authorAddress",
          "type": "address"
        },
        {
          "internalType": "address",
          "name": "receiverAddress",
          "type": "address"
        },
        {
          "internalType": "uint256",
          "name": "tokenId",
          "type": "uint256"
        },
        {
          "internalType": "uint256",
          "name": "tokenValue",
          "type": "uint256"
        }
      ],
      "name": "transferToken",
      "outputs": [
        {
          "internalType": "bool",
          "name": "",
          "type": "bool"
        }
      ],
      "stateMutability": "payable",
      "type": "function"
    }
  ],
  "bytecode": "0x60806040523480156200001157600080fd5b5060405162002c4b38038062002c4b8339818101604052810190620000379190620004a3565b336000806101000a81548173ffffffffffffffffffffffffffffffffffffffff021916908373ffffffffffffffffffffffffffffffffffffffff16021790555081600160006101000a81548173ffffffffffffffffffffffffffffffffffffffff021916908373ffffffffffffffffffffffffffffffffffffffff16021790555080600260006101000a81548173ffffffffffffffffffffffffffffffffffffffff021916908373ffffffffffffffffffffffffffffffffffffffff16021790555060006040518060400160405280600e81526020017f44656661756c7420417574686f72000000000000000000000000000000000000815250905060006040518060400160405280601181526020017f64656661756c7440656d61696c2e636f6d00000000000000000000000000000081525090506200018233838360016200018c60201b60201c565b50505050620006ef565b60006001905060006040518060a001604052808773ffffffffffffffffffffffffffffffffffffffff1681526020018681526020018581526020018415158152602001831515815250905080600760008873ffffffffffffffffffffffffffffffffffffffff1673ffffffffffffffffffffffffffffffffffffffff16815260200190815260200160002060008201518160000160006101000a81548173ffffffffffffffffffffffffffffffffffffffff021916908373ffffffffffffffffffffffffffffffffffffffff16021790555060208201518160010190805190602001906200027c929190620003dc565b5060408201518160020190805190602001906200029b929190620003dc565b5060608201518160030160006101000a81548160ff02191690831515021790555060808201518160030160016101000a81548160ff0219169083151502179055509050506006869080600181540180825580915050600190039060005260206000200160009091909190916101000a81548173ffffffffffffffffffffffffffffffffffffffff021916908373ffffffffffffffffffffffffffffffffffffffff160217905550620003596005620003b860201b620015a31760201c565b7f83b66a7eb14a9bd3c42c2a697caf084b40a9b2d704356fe6eeb1909a12e323c0620003916005620003ce60201b620015b91760201c565b87878787604051620003a895949392919062000558565b60405180910390a1505050505050565b6001816000016000828254019250508190555050565b600081600001549050919050565b828054620003ea906200065f565b90600052602060002090601f0160209004810192826200040e57600085556200045a565b82601f106200042957805160ff19168380011785556200045a565b828001600101855582156200045a579182015b82811115620004595782518255916020019190600101906200043c565b5b5090506200046991906200046d565b5090565b5b80821115620004885760008160009055506001016200046e565b5090565b6000815190506200049d81620006d5565b92915050565b60008060408385031215620004b757600080fd5b6000620004c7858286016200048c565b9250506020620004da858286016200048c565b9150509250929050565b620004ef81620005df565b82525050565b6200050081620005f3565b82525050565b60006200051382620005c3565b6200051f8185620005ce565b93506200053181856020860162000629565b6200053c81620006c4565b840191505092915050565b62000552816200061f565b82525050565b600060a0820190506200056f600083018862000547565b6200057e6020830187620004e4565b818103604083015262000592818662000506565b90508181036060830152620005a8818562000506565b9050620005b96080830184620004f5565b9695505050505050565b600081519050919050565b600082825260208201905092915050565b6000620005ec82620005ff565b9050919050565b60008115159050919050565b600073ffffffffffffffffffffffffffffffffffffffff82169050919050565b6000819050919050565b60005b83811015620006495780820151818401526020810190506200062c565b8381111562000659576000848401525b50505050565b600060028204905060018216806200067857607f821691505b602082108114156200068f576200068e62000695565b5b50919050565b7f4e487b7100000000000000000000000000000000000000000000000000000000600052602260045260246000fd5b6000601f19601f8301169050919050565b620006e081620005df565b8114620006ec57600080fd5b50565b61254c80620006ff6000396000f3fe6080604052600436106100f35760003560e01c8063a79123a91161008a578063bf9c500111610059578063bf9c500114610333578063d4b1253014610374578063de74e57b146103b1578063e3b4cfcc146103f2576100f3565b8063a79123a914610277578063b217cc39146102b4578063b6db75a0146102dd578063b6e3cc1a14610308576100f3565b8063479ad4c3116100c6578063479ad4c3146101bb57806361879c7b146101e45780637b22c8fe1461020f5780639b91c39c1461023a576100f3565b8063036ebef9146100f857806306fdde0314610128578063150b7a02146101535780632ebeb17514610190575b600080fd5b610112600480360381019061010d9190611a15565b61042f565b60405161011f9190611ef9565b60405180910390f35b34801561013457600080fd5b5061013d610680565b60405161014a9190611f2f565b60405180910390f35b34801561015f57600080fd5b5061017a60048036038101906101759190611995565b6106bd565b6040516101879190611f14565b60405180910390f35b34801561019c57600080fd5b506101a56106c8565b6040516101b29190611ed7565b60405180910390f35b3480156101c757600080fd5b506101e260048036038101906101dd9190611b0d565b610967565b005b3480156101f057600080fd5b506101f9610c1f565b6040516102069190611ed7565b60405180910390f35b34801561021b57600080fd5b50610224610cb4565b6040516102319190611fd1565b60405180910390f35b34801561024657600080fd5b50610261600480360381019061025c9190611b0d565b610cc0565b60405161026e9190611fd1565b60405180910390f35b34801561028357600080fd5b5061029e60048036038101906102999190611b36565b610deb565b6040516102ab9190611fd1565b60405180910390f35b3480156102c057600080fd5b506102db60048036038101906102d69190611aa1565b611093565b005b3480156102e957600080fd5b506102f26110f9565b6040516102ff9190611ef9565b60405180910390f35b34801561031457600080fd5b5061031d611150565b60405161032a9190611fd1565b60405180910390f35b34801561033f57600080fd5b5061035a6004803603810190610355919061196c565b61115c565b60405161036b959493929190611e3f565b60405180910390f35b34801561038057600080fd5b5061039b6004803603810190610396919061196c565b6112dc565b6040516103a89190611ef9565b60405180910390f35b3480156103bd57600080fd5b506103d860048036038101906103d39190611b0d565b611501565b6040516103e995949392919061204d565b60405180910390f35b3480156103fe57600080fd5b5061041960048036038101906104149190611b0d565b611564565b6040516104269190611ded565b60405180910390f35b6000806064600a8461044191906121dd565b61044b91906121ac565b90506000818461045b9190612237565b9050600260009054906101000a900473ffffffffffffffffffffffffffffffffffffffff1673ffffffffffffffffffffffffffffffffffffffff166323b872dd8760008054906101000a900473ffffffffffffffffffffffffffffffffffffffff16856040518463ffffffff1660e01b81526004016104dc93929190611e08565b602060405180830381600087803b1580156104f657600080fd5b505af115801561050a573d6000803e3d6000fd5b505050506040513d601f19601f8201168201806040525081019061052e9190611a78565b50600260009054906101000a900473ffffffffffffffffffffffffffffffffffffffff1673ffffffffffffffffffffffffffffffffffffffff166323b872dd8789846040518463ffffffff1660e01b815260040161058e93929190611e08565b602060405180830381600087803b1580156105a857600080fd5b505af11580156105bc573d6000803e3d6000fd5b505050506040513d601f19601f820116820180604052508101906105e09190611a78565b50600160009054906101000a900473ffffffffffffffffffffffffffffffffffffffff1673ffffffffffffffffffffffffffffffffffffffff166342842e0e8888886040518463ffffffff1660e01b815260040161064093929190611e08565b600060405180830381600087803b15801561065a57600080fd5b505af115801561066e573d6000803e3d6000fd5b50505050600192505050949350505050565b60606040518060400160405280601081526020017f506978656c4d61726b6574706c61636500000000000000000000000000000000815250905090565b600095945050505050565b606060006106d660036115b9565b905060006001826106e79190612156565b67ffffffffffffffff811115610726577f4e487b7100000000000000000000000000000000000000000000000000000000600052604160045260246000fd5b6040519080825280602002602001820160405280156107545781602001602082028036833780820191505090505b5090506000600190505b82811161095e576000600460008381526020019081526020016000206040518060a0016040529081600082015481526020016001820160009054906101000a900473ffffffffffffffffffffffffffffffffffffffff1673ffffffffffffffffffffffffffffffffffffffff1673ffffffffffffffffffffffffffffffffffffffff16815260200160028201548152602001600382015481526020016004820160009054906101000a900460ff166002811115610844577f4e487b7100000000000000000000000000000000000000000000000000000000600052602160045260246000fd5b600281111561087c577f4e487b7100000000000000000000000000000000000000000000000000000000600052602160045260246000fd5b815250509050600060028111156108bc577f4e487b7100000000000000000000000000000000000000000000000000000000600052602160045260246000fd5b816080015160028111156108f9577f4e487b7100000000000000000000000000000000000000000000000000000000600052602160045260246000fd5b141561094a57806000015183838151811061093d577f4e487b7100000000000000000000000000000000000000000000000000000000600052603260045260246000fd5b6020026020010181815250505b50808061095690612378565b91505061075e565b50809250505090565b610970336112dc565b6109af576040517f08c379a00000000000000000000000000000000000000000000000000000000081526004016109a690611f91565b60405180910390fd5b6000600460008381526020019081526020016000206040518060a0016040529081600082015481526020016001820160009054906101000a900473ffffffffffffffffffffffffffffffffffffffff1673ffffffffffffffffffffffffffffffffffffffff1673ffffffffffffffffffffffffffffffffffffffff16815260200160028201548152602001600382015481526020016004820160009054906101000a900460ff166002811115610a8e577f4e487b7100000000000000000000000000000000000000000000000000000000600052602160045260246000fd5b6002811115610ac6577f4e487b7100000000000000000000000000000000000000000000000000000000600052602160045260246000fd5b815250509050600281608001906002811115610b0b577f4e487b7100000000000000000000000000000000000000000000000000000000600052602160045260246000fd5b90816002811115610b45577f4e487b7100000000000000000000000000000000000000000000000000000000600052602160045260246000fd5b8152505080600460008481526020019081526020016000206000820151816000015560208201518160010160006101000a81548173ffffffffffffffffffffffffffffffffffffffff021916908373ffffffffffffffffffffffffffffffffffffffff160217905550604082015181600201556060820151816003015560808201518160040160006101000a81548160ff02191690836002811115610c13577f4e487b7100000000000000000000000000000000000000000000000000000000600052602160045260246000fd5b02179055509050505050565b6060600860003373ffffffffffffffffffffffffffffffffffffffff1673ffffffffffffffffffffffffffffffffffffffff168152602001908152602001600020805480602002602001604051908101604052809291908181526020018280548015610caa57602002820191906000526020600020905b815481526020019060010190808311610c96575b5050505050905090565b60038060000154905081565b600080600460008481526020019081526020016000206040518060a0016040529081600082015481526020016001820160009054906101000a900473ffffffffffffffffffffffffffffffffffffffff1673ffffffffffffffffffffffffffffffffffffffff1673ffffffffffffffffffffffffffffffffffffffff16815260200160028201548152602001600382015481526020016004820160009054906101000a900460ff166002811115610da0577f4e487b7100000000000000000000000000000000000000000000000000000000600052602160045260246000fd5b6002811115610dd8577f4e487b7100000000000000000000000000000000000000000000000000000000600052602160045260246000fd5b8152505090508060400151915050919050565b6000610df6336112dc565b610e35576040517f08c379a0000000000000000000000000000000000000000000000000000000008152600401610e2c90611fb1565b60405180910390fd5b610e3d6115c7565b15610e7d576040517f08c379a0000000000000000000000000000000000000000000000000000000008152600401610e7490611f71565b60405180910390fd5b610e8760036115a3565b6000610e9360036115b9565b905060006040518060a001604052808381526020013373ffffffffffffffffffffffffffffffffffffffff16815260200186815260200185815260200160006002811115610f0a577f4e487b7100000000000000000000000000000000000000000000000000000000600052602160045260246000fd5b815250905080600460008481526020019081526020016000206000820151816000015560208201518160010160006101000a81548173ffffffffffffffffffffffffffffffffffffffff021916908373ffffffffffffffffffffffffffffffffffffffff160217905550604082015181600201556060820151816003015560808201518160040160006101000a81548160ff02191690836002811115610fd9577f4e487b7100000000000000000000000000000000000000000000000000000000600052602160045260246000fd5b02179055509050506000600860003373ffffffffffffffffffffffffffffffffffffffff1673ffffffffffffffffffffffffffffffffffffffff1681526020019081526020016000209050808390806001815401808255809150506001900390600052602060002001600090919091909150557f204bc022fa26366a9c1a614f0418b5d7a017e73cb2404f70a9a696f110334e5133848760405161107f93929190611ea0565b60405180910390a182935050505092915050565b600061109e336112dc565b905080156110e1576040517f08c379a00000000000000000000000000000000000000000000000000000000081526004016110d890611f51565b60405180910390fd5b6000600190506110f3338585846115cc565b50505050565b60008060009054906101000a900473ffffffffffffffffffffffffffffffffffffffff1673ffffffffffffffffffffffffffffffffffffffff163373ffffffffffffffffffffffffffffffffffffffff1614905090565b60058060000154905081565b60076020528060005260406000206000915090508060000160009054906101000a900473ffffffffffffffffffffffffffffffffffffffff16908060010180546111a590612346565b80601f01602080910402602001604051908101604052809291908181526020018280546111d190612346565b801561121e5780601f106111f35761010080835404028352916020019161121e565b820191906000526020600020905b81548152906001019060200180831161120157829003601f168201915b50505050509080600201805461123390612346565b80601f016020809104026020016040519081016040528092919081815260200182805461125f90612346565b80156112ac5780601f10611281576101008083540402835291602001916112ac565b820191906000526020600020905b81548152906001019060200180831161128f57829003601f168201915b5050505050908060030160009054906101000a900460ff16908060030160019054906101000a900460ff16905085565b600080600760008473ffffffffffffffffffffffffffffffffffffffff1673ffffffffffffffffffffffffffffffffffffffff1681526020019081526020016000206040518060a00160405290816000820160009054906101000a900473ffffffffffffffffffffffffffffffffffffffff1673ffffffffffffffffffffffffffffffffffffffff1673ffffffffffffffffffffffffffffffffffffffff16815260200160018201805461138f90612346565b80601f01602080910402602001604051908101604052809291908181526020018280546113bb90612346565b80156114085780601f106113dd57610100808354040283529160200191611408565b820191906000526020600020905b8154815290600101906020018083116113eb57829003601f168201915b5050505050815260200160028201805461142190612346565b80601f016020809104026020016040519081016040528092919081815260200182805461144d90612346565b801561149a5780601f1061146f5761010080835404028352916020019161149a565b820191906000526020600020905b81548152906001019060200180831161147d57829003601f168201915b505050505081526020016003820160009054906101000a900460ff161515151581526020016003820160019054906101000a900460ff1615151515815250509050600115158160800151151514156114f65760019150506114fc565b60009150505b919050565b60046020528060005260406000206000915090508060000154908060010160009054906101000a900473ffffffffffffffffffffffffffffffffffffffff16908060020154908060030154908060040160009054906101000a900460ff16905085565b6006818154811061157457600080fd5b906000526020600020016000915054906101000a900473ffffffffffffffffffffffffffffffffffffffff1681565b6001816000016000828254019250508190555050565b600081600001549050919050565b600090565b60006001905060006040518060a001604052808773ffffffffffffffffffffffffffffffffffffffff1681526020018681526020018581526020018415158152602001831515815250905080600760008873ffffffffffffffffffffffffffffffffffffffff1673ffffffffffffffffffffffffffffffffffffffff16815260200190815260200160002060008201518160000160006101000a81548173ffffffffffffffffffffffffffffffffffffffff021916908373ffffffffffffffffffffffffffffffffffffffff16021790555060208201518160010190805190602001906116ba9291906117d8565b5060408201518160020190805190602001906116d79291906117d8565b5060608201518160030160006101000a81548160ff02191690831515021790555060808201518160030160016101000a81548160ff0219169083151502179055509050506006869080600181540180825580915050600190039060005260206000200160009091909190916101000a81548173ffffffffffffffffffffffffffffffffffffffff021916908373ffffffffffffffffffffffffffffffffffffffff16021790555061178860056115a3565b7f83b66a7eb14a9bd3c42c2a697caf084b40a9b2d704356fe6eeb1909a12e323c06117b360056115b9565b878787876040516117c8959493929190611fec565b60405180910390a1505050505050565b8280546117e490612346565b90600052602060002090601f016020900481019282611806576000855561184d565b82601f1061181f57805160ff191683800117855561184d565b8280016001018555821561184d579182015b8281111561184c578251825591602001919060010190611831565b5b50905061185a919061185e565b5090565b5b8082111561187757600081600090555060010161185f565b5090565b600061188e611889846120d1565b6120a0565b9050828152602081018484840111156118a657600080fd5b6118b1848285612304565b509392505050565b6000813590506118c8816124d1565b92915050565b6000815190506118dd816124e8565b92915050565b60008083601f8401126118f557600080fd5b8235905067ffffffffffffffff81111561190e57600080fd5b60208301915083600182028301111561192657600080fd5b9250929050565b600082601f83011261193e57600080fd5b813561194e84826020860161187b565b91505092915050565b600081359050611966816124ff565b92915050565b60006020828403121561197e57600080fd5b600061198c848285016118b9565b91505092915050565b6000806000806000608086880312156119ad57600080fd5b60006119bb888289016118b9565b95505060206119cc888289016118b9565b94505060406119dd88828901611957565b935050606086013567ffffffffffffffff8111156119fa57600080fd5b611a06888289016118e3565b92509250509295509295909350565b60008060008060808587031215611a2b57600080fd5b6000611a39878288016118b9565b9450506020611a4a878288016118b9565b9350506040611a5b87828801611957565b9250506060611a6c87828801611957565b91505092959194509250565b600060208284031215611a8a57600080fd5b6000611a98848285016118ce565b91505092915050565b60008060408385031215611ab457600080fd5b600083013567ffffffffffffffff811115611ace57600080fd5b611ada8582860161192d565b925050602083013567ffffffffffffffff811115611af757600080fd5b611b038582860161192d565b9150509250929050565b600060208284031215611b1f57600080fd5b6000611b2d84828501611957565b91505092915050565b60008060408385031215611b4957600080fd5b6000611b5785828601611957565b9250506020611b6885828601611957565b9150509250929050565b6000611b7e8383611dcf565b60208301905092915050565b611b938161226b565b82525050565b6000611ba482612111565b611bae8185612134565b9350611bb983612101565b8060005b83811015611bea578151611bd18882611b72565b9750611bdc83612127565b925050600181019050611bbd565b5085935050505092915050565b611c008161227d565b82525050565b611c0f81612289565b82525050565b611c1e816122f2565b82525050565b6000611c2f8261211c565b611c398185612145565b9350611c49818560208601612313565b611c52816124ac565b840191505092915050565b6000611c6a601583612145565b91507f417574686f7220616c72656164792065786973747300000000000000000000006000830152602082019050919050565b6000611caa602c83612145565b91507f43616e6e6f7420637265617465206e6577206c697374696e672077697468207460008301527f68617420746f6b656e20494400000000000000000000000000000000000000006020830152604082019050919050565b6000611d10602b83612145565b91507f4f6e6c79207265676973746572656420617574686f72732063616e2072656d6f60008301527f7665206c697374696e67730000000000000000000000000000000000000000006020830152604082019050919050565b6000611d76602b83612145565b91507f4f6e6c79207265676973746572656420617574686f72732063616e206372656160008301527f7465206c697374696e67730000000000000000000000000000000000000000006020830152604082019050919050565b611dd8816122e8565b82525050565b611de7816122e8565b82525050565b6000602082019050611e026000830184611b8a565b92915050565b6000606082019050611e1d6000830186611b8a565b611e2a6020830185611b8a565b611e376040830184611dde565b949350505050565b600060a082019050611e546000830188611b8a565b8181036020830152611e668187611c24565b90508181036040830152611e7a8186611c24565b9050611e896060830185611bf7565b611e966080830184611bf7565b9695505050505050565b6000606082019050611eb56000830186611b8a565b611ec26020830185611dde565b611ecf6040830184611dde565b949350505050565b60006020820190508181036000830152611ef18184611b99565b905092915050565b6000602082019050611f0e6000830184611bf7565b92915050565b6000602082019050611f296000830184611c06565b92915050565b60006020820190508181036000830152611f498184611c24565b905092915050565b60006020820190508181036000830152611f6a81611c5d565b9050919050565b60006020820190508181036000830152611f8a81611c9d565b9050919050565b60006020820190508181036000830152611faa81611d03565b9050919050565b60006020820190508181036000830152611fca81611d69565b9050919050565b6000602082019050611fe66000830184611dde565b92915050565b600060a0820190506120016000830188611dde565b61200e6020830187611b8a565b81810360408301526120208186611c24565b905081810360608301526120348185611c24565b90506120436080830184611bf7565b9695505050505050565b600060a0820190506120626000830188611dde565b61206f6020830187611b8a565b61207c6040830186611dde565b6120896060830185611dde565b6120966080830184611c15565b9695505050505050565b6000604051905081810181811067ffffffffffffffff821117156120c7576120c661247d565b5b8060405250919050565b600067ffffffffffffffff8211156120ec576120eb61247d565b5b601f19601f8301169050602081019050919050565b6000819050602082019050919050565b600081519050919050565b600081519050919050565b6000602082019050919050565b600082825260208201905092915050565b600082825260208201905092915050565b6000612161826122e8565b915061216c836122e8565b9250827fffffffffffffffffffffffffffffffffffffffffffffffffffffffffffffffff038211156121a1576121a06123c1565b5b828201905092915050565b60006121b7826122e8565b91506121c2836122e8565b9250826121d2576121d16123f0565b5b828204905092915050565b60006121e8826122e8565b91506121f3836122e8565b9250817fffffffffffffffffffffffffffffffffffffffffffffffffffffffffffffffff048311821515161561222c5761222b6123c1565b5b828202905092915050565b6000612242826122e8565b915061224d836122e8565b9250828210156122605761225f6123c1565b5b828203905092915050565b6000612276826122c8565b9050919050565b60008115159050919050565b60007fffffffff0000000000000000000000000000000000000000000000000000000082169050919050565b60008190506122c3826124bd565b919050565b600073ffffffffffffffffffffffffffffffffffffffff82169050919050565b6000819050919050565b60006122fd826122b5565b9050919050565b82818337600083830152505050565b60005b83811015612331578082015181840152602081019050612316565b83811115612340576000848401525b50505050565b6000600282049050600182168061235e57607f821691505b602082108114156123725761237161244e565b5b50919050565b6000612383826122e8565b91507fffffffffffffffffffffffffffffffffffffffffffffffffffffffffffffffff8214156123b6576123b56123c1565b5b600182019050919050565b7f4e487b7100000000000000000000000000000000000000000000000000000000600052601160045260246000fd5b7f4e487b7100000000000000000000000000000000000000000000000000000000600052601260045260246000fd5b7f4e487b7100000000000000000000000000000000000000000000000000000000600052602160045260246000fd5b7f4e487b7100000000000000000000000000000000000000000000000000000000600052602260045260246000fd5b7f4e487b7100000000000000000000000000000000000000000000000000000000600052604160045260246000fd5b6000601f19601f8301169050919050565b600381106124ce576124cd61241f565b5b50565b6124da8161226b565b81146124e557600080fd5b50565b6124f18161227d565b81146124fc57600080fd5b50565b612508816122e8565b811461251357600080fd5b5056fea2646970667358221220a17b9c8ef7c0f25b0708dee169822d6030c8c9687abf05b514f8a1738da9f3c564736f6c63430008000033",
  "linkReferences": {},
  "deployedLinkReferences": {}
}