{
  "_format": "hh-sol-artifact-1",
  "contractName": "PixelMarketplace",
  "sourceName": "contracts/PixelMarketplace.sol",
  "abi": [
    {
      "inputs": [
        {
          "internalType": "address",
          "name": "_NFTContractAddress",
          "type": "address"
        },
        {
          "internalType": "address",
          "name": "_tokenContractAddress",
          "type": "address"
        }
      ],
      "stateMutability": "nonpayable",
      "type": "constructor"
    },
    {
      "anonymous": false,
      "inputs": [
        {
          "indexed": false,
          "internalType": "uint256",
          "name": "_authorId",
          "type": "uint256"
        },
        {
          "indexed": false,
          "internalType": "address",
          "name": "_authorWalletAddress",
          "type": "address"
        },
        {
          "indexed": false,
          "internalType": "string",
          "name": "_authorName",
          "type": "string"
        },
        {
          "indexed": false,
          "internalType": "string",
          "name": "_authorEmail",
          "type": "string"
        },
        {
          "indexed": false,
          "internalType": "bool",
          "name": "isActive",
          "type": "bool"
        }
      ],
      "name": "AuthorUpdate",
      "type": "event"
    },
    {
      "anonymous": false,
      "inputs": [
        {
          "indexed": false,
          "internalType": "address",
          "name": "_authorId",
          "type": "address"
        },
        {
          "indexed": false,
          "internalType": "uint256",
          "name": "_listingId",
          "type": "uint256"
        },
        {
          "indexed": false,
          "internalType": "uint256",
          "name": "value",
          "type": "uint256"
        }
      ],
      "name": "ListingCreated",
      "type": "event"
    },
    {
      "inputs": [
        {
          "internalType": "address",
          "name": "_authorAddress",
          "type": "address"
        }
      ],
      "name": "addresstoAuthorId",
      "outputs": [
        {
          "internalType": "uint256",
          "name": "",
          "type": "uint256"
        }
      ],
      "stateMutability": "view",
      "type": "function"
    },
    {
      "inputs": [],
      "name": "authorIds",
      "outputs": [
        {
          "internalType": "uint256",
          "name": "_value",
          "type": "uint256"
        }
      ],
      "stateMutability": "view",
      "type": "function"
    },
    {
      "inputs": [
        {
          "internalType": "uint256",
          "name": "",
          "type": "uint256"
        }
      ],
      "name": "authors",
      "outputs": [
        {
          "internalType": "address",
          "name": "authorWallet",
          "type": "address"
        },
        {
          "internalType": "string",
          "name": "authorName",
          "type": "string"
        },
        {
          "internalType": "string",
          "name": "authorEmail",
          "type": "string"
        },
        {
          "internalType": "bool",
          "name": "isActive",
          "type": "bool"
        },
        {
          "internalType": "bool",
          "name": "exists",
          "type": "bool"
        }
      ],
      "stateMutability": "view",
      "type": "function"
    },
    {
      "inputs": [
        {
          "internalType": "uint256",
          "name": "_tokenId",
          "type": "uint256"
        },
        {
          "internalType": "uint256",
          "name": "_value",
          "type": "uint256"
        }
      ],
      "name": "createListing",
      "outputs": [
        {
          "internalType": "uint256",
          "name": "",
          "type": "uint256"
        }
      ],
      "stateMutability": "nonpayable",
      "type": "function"
    },
    {
      "inputs": [],
      "name": "getAllAvailableListingIds",
      "outputs": [
        {
          "internalType": "uint256[]",
          "name": "",
          "type": "uint256[]"
        }
      ],
      "stateMutability": "view",
      "type": "function"
    },
    {
      "inputs": [],
      "name": "getMyId",
      "outputs": [
        {
          "internalType": "uint256",
          "name": "",
          "type": "uint256"
        }
      ],
      "stateMutability": "view",
      "type": "function"
    },
    {
      "inputs": [],
      "name": "getMyListingsIds",
      "outputs": [
        {
          "internalType": "uint256[]",
          "name": "",
          "type": "uint256[]"
        }
      ],
      "stateMutability": "view",
      "type": "function"
    },
    {
      "inputs": [],
      "name": "isAdmin",
      "outputs": [
        {
          "internalType": "bool",
          "name": "",
          "type": "bool"
        }
      ],
      "stateMutability": "view",
      "type": "function"
    },
    {
      "inputs": [],
      "name": "isAuthor",
      "outputs": [
        {
          "internalType": "bool",
          "name": "",
          "type": "bool"
        }
      ],
      "stateMutability": "view",
      "type": "function"
    },
    {
      "inputs": [
        {
          "internalType": "uint256",
          "name": "listingId",
          "type": "uint256"
        }
      ],
      "name": "listingIdToTokenId",
      "outputs": [
        {
          "internalType": "uint256",
          "name": "",
          "type": "uint256"
        }
      ],
      "stateMutability": "view",
      "type": "function"
    },
    {
      "inputs": [],
      "name": "listingIds",
      "outputs": [
        {
          "internalType": "uint256",
          "name": "_value",
          "type": "uint256"
        }
      ],
      "stateMutability": "view",
      "type": "function"
    },
    {
      "inputs": [
        {
          "internalType": "uint256",
          "name": "",
          "type": "uint256"
        }
      ],
      "name": "listings",
      "outputs": [
        {
          "internalType": "uint256",
          "name": "id",
          "type": "uint256"
        },
        {
          "internalType": "address",
          "name": "author",
          "type": "address"
        },
        {
          "internalType": "uint256",
          "name": "tokenId",
          "type": "uint256"
        },
        {
          "internalType": "uint256",
          "name": "value",
          "type": "uint256"
        },
        {
          "internalType": "enum ListingStatus",
          "name": "status",
          "type": "uint8"
        }
      ],
      "stateMutability": "view",
      "type": "function"
    },
    {
      "inputs": [],
      "name": "name",
      "outputs": [
        {
          "internalType": "string",
          "name": "",
          "type": "string"
        }
      ],
      "stateMutability": "pure",
      "type": "function"
    },
    {
      "inputs": [
        {
          "internalType": "address",
          "name": "operator",
          "type": "address"
        },
        {
          "internalType": "address",
          "name": "from",
          "type": "address"
        },
        {
          "internalType": "uint256",
          "name": "tokenId",
          "type": "uint256"
        },
        {
          "internalType": "bytes",
          "name": "data",
          "type": "bytes"
        }
      ],
      "name": "onERC721Received",
      "outputs": [
        {
          "internalType": "bytes4",
          "name": "",
          "type": "bytes4"
        }
      ],
      "stateMutability": "nonpayable",
      "type": "function"
    },
    {
      "inputs": [
        {
          "internalType": "uint256",
          "name": "_listingId",
          "type": "uint256"
        }
      ],
      "name": "removeListing",
      "outputs": [],
      "stateMutability": "nonpayable",
      "type": "function"
    },
    {
      "inputs": [
        {
          "internalType": "string",
          "name": "_authorName",
          "type": "string"
        },
        {
          "internalType": "string",
          "name": "_authorEmail",
          "type": "string"
        }
      ],
      "name": "requestAuthorship",
      "outputs": [],
      "stateMutability": "nonpayable",
      "type": "function"
    },
    {
      "inputs": [
        {
          "internalType": "address",
          "name": "authorAddress",
          "type": "address"
        },
        {
          "internalType": "address",
          "name": "receiverAddress",
          "type": "address"
        },
        {
          "internalType": "uint256",
          "name": "tokenId",
          "type": "uint256"
        },
        {
          "internalType": "uint256",
          "name": "tokenValue",
          "type": "uint256"
        }
      ],
      "name": "transferToken",
      "outputs": [
        {
          "internalType": "bool",
          "name": "",
          "type": "bool"
        }
      ],
      "stateMutability": "payable",
      "type": "function"
    }
  ],
  "bytecode": "0x60806040523480156200001157600080fd5b5060405162002a9438038062002a9483398181016040528101906200003791906200041c565b336000806101000a81548173ffffffffffffffffffffffffffffffffffffffff021916908373ffffffffffffffffffffffffffffffffffffffff16021790555081600160006101000a81548173ffffffffffffffffffffffffffffffffffffffff021916908373ffffffffffffffffffffffffffffffffffffffff16021790555080600260006101000a81548173ffffffffffffffffffffffffffffffffffffffff021916908373ffffffffffffffffffffffffffffffffffffffff160217905550620001106005620001c060201b620015ba1760201c565b6000620001296005620001d660201b620015d01760201c565b905060006040518060400160405280600e81526020017f44656661756c7420417574686f72000000000000000000000000000000000000815250905060006040518060400160405280601181526020017f64656661756c7440656d61696c2e636f6d0000000000000000000000000000008152509050620001b5833384846001620001e460201b60201c565b505050505062000668565b6001816000016000828254019250508190555050565b600081600001549050919050565b60006001905060006040518060a001604052808773ffffffffffffffffffffffffffffffffffffffff16815260200186815260200185815260200184151581526020018315158152509050806006600089815260200190815260200160002060008201518160000160006101000a81548173ffffffffffffffffffffffffffffffffffffffff021916908373ffffffffffffffffffffffffffffffffffffffff1602179055506020820151816001019080519060200190620002a892919062000355565b506040820151816002019080519060200190620002c792919062000355565b5060608201518160030160006101000a81548160ff02191690831515021790555060808201518160030160016101000a81548160ff0219169083151502179055509050507f83b66a7eb14a9bd3c42c2a697caf084b40a9b2d704356fe6eeb1909a12e323c0878787878760405162000344959493929190620004d1565b60405180910390a150505050505050565b8280546200036390620005d8565b90600052602060002090601f016020900481019282620003875760008555620003d3565b82601f10620003a257805160ff1916838001178555620003d3565b82800160010185558215620003d3579182015b82811115620003d2578251825591602001919060010190620003b5565b5b509050620003e29190620003e6565b5090565b5b8082111562000401576000816000905550600101620003e7565b5090565b60008151905062000416816200064e565b92915050565b600080604083850312156200043057600080fd5b6000620004408582860162000405565b9250506020620004538582860162000405565b9150509250929050565b620004688162000558565b82525050565b62000479816200056c565b82525050565b60006200048c826200053c565b62000498818562000547565b9350620004aa818560208601620005a2565b620004b5816200063d565b840191505092915050565b620004cb8162000598565b82525050565b600060a082019050620004e86000830188620004c0565b620004f760208301876200045d565b81810360408301526200050b81866200047f565b905081810360608301526200052181856200047f565b90506200053260808301846200046e565b9695505050505050565b600081519050919050565b600082825260208201905092915050565b6000620005658262000578565b9050919050565b60008115159050919050565b600073ffffffffffffffffffffffffffffffffffffffff82169050919050565b6000819050919050565b60005b83811015620005c2578082015181840152602081019050620005a5565b83811115620005d2576000848401525b50505050565b60006002820490506001821680620005f157607f821691505b602082108114156200060857620006076200060e565b5b50919050565b7f4e487b7100000000000000000000000000000000000000000000000000000000600052602260045260246000fd5b6000601f19601f8301169050919050565b620006598162000558565b81146200066557600080fd5b50565b61241c80620006786000396000f3fe6080604052600436106100fe5760003560e01c806361879c7b11610095578063b217cc3911610064578063b217cc3914610356578063b6db75a01461037f578063de74e57b146103aa578063dfb0187f146103eb578063fe34d07914610428576100fe565b806361879c7b146102865780637b22c8fe146102b15780639b91c39c146102dc578063a79123a914610319576100fe565b80632ebeb175116100d15780632ebeb175146101c65780633db804da146101f1578063479ad4c3146102325780635cf298fb1461025b576100fe565b8063036ebef91461010357806306fdde0314610133578063150b7a021461015e57806327ed00ee1461019b575b600080fd5b61011d60048036038101906101189190611986565b610453565b60405161012a9190611de9565b60405180910390f35b34801561013f57600080fd5b506101486106a4565b6040516101559190611e1f565b60405180910390f35b34801561016a57600080fd5b5061018560048036038101906101809190611906565b6106e1565b6040516101929190611e04565b60405180910390f35b3480156101a757600080fd5b506101b06106ec565b6040516101bd9190611ea1565b60405180910390f35b3480156101d257600080fd5b506101db610701565b6040516101e89190611dc7565b60405180910390f35b3480156101fd57600080fd5b5061021860048036038101906102139190611a7e565b6109a0565b604051610229959493929190611d2f565b60405180910390f35b34801561023e57600080fd5b5061025960048036038101906102549190611a7e565b610b20565b005b34801561026757600080fd5b50610270610dd7565b60405161027d9190611de9565b60405180910390f35b34801561029257600080fd5b5061029b610e01565b6040516102a89190611dc7565b60405180910390f35b3480156102bd57600080fd5b506102c6610e96565b6040516102d39190611ea1565b60405180910390f35b3480156102e857600080fd5b5061030360048036038101906102fe9190611a7e565b610ea2565b6040516103109190611ea1565b60405180910390f35b34801561032557600080fd5b50610340600480360381019061033b9190611aa7565b610fcd565b60405161034d9190611ea1565b60405180910390f35b34801561036257600080fd5b5061037d60048036038101906103789190611a12565b61122c565b005b34801561038b57600080fd5b506103946112a5565b6040516103a19190611de9565b60405180910390f35b3480156103b657600080fd5b506103d160048036038101906103cc9190611a7e565b6112fc565b6040516103e2959493929190611f1d565b60405180910390f35b3480156103f757600080fd5b50610412600480360381019061040d91906118dd565b61135f565b60405161041f9190611ea1565b60405180910390f35b34801561043457600080fd5b5061043d6115ae565b60405161044a9190611ea1565b60405180910390f35b6000806064600a8461046591906120ad565b61046f919061207c565b90506000818461047f9190612107565b9050600260009054906101000a900473ffffffffffffffffffffffffffffffffffffffff1673ffffffffffffffffffffffffffffffffffffffff166323b872dd8760008054906101000a900473ffffffffffffffffffffffffffffffffffffffff16856040518463ffffffff1660e01b815260040161050093929190611cf8565b602060405180830381600087803b15801561051a57600080fd5b505af115801561052e573d6000803e3d6000fd5b505050506040513d601f19601f8201168201806040525081019061055291906119e9565b50600260009054906101000a900473ffffffffffffffffffffffffffffffffffffffff1673ffffffffffffffffffffffffffffffffffffffff166323b872dd8789846040518463ffffffff1660e01b81526004016105b293929190611cf8565b602060405180830381600087803b1580156105cc57600080fd5b505af11580156105e0573d6000803e3d6000fd5b505050506040513d601f19601f8201168201806040525081019061060491906119e9565b50600160009054906101000a900473ffffffffffffffffffffffffffffffffffffffff1673ffffffffffffffffffffffffffffffffffffffff166342842e0e8888886040518463ffffffff1660e01b815260040161066493929190611cf8565b600060405180830381600087803b15801561067e57600080fd5b505af1158015610692573d6000803e3d6000fd5b50505050600192505050949350505050565b60606040518060400160405280601081526020017f506978656c4d61726b6574706c61636500000000000000000000000000000000815250905090565b600095945050505050565b6000806106f83361135f565b90508091505090565b6060600061070f60036115d0565b905060006001826107209190612026565b67ffffffffffffffff81111561075f577f4e487b7100000000000000000000000000000000000000000000000000000000600052604160045260246000fd5b60405190808252806020026020018201604052801561078d5781602001602082028036833780820191505090505b5090506000600190505b828111610997576000600460008381526020019081526020016000206040518060a0016040529081600082015481526020016001820160009054906101000a900473ffffffffffffffffffffffffffffffffffffffff1673ffffffffffffffffffffffffffffffffffffffff1673ffffffffffffffffffffffffffffffffffffffff16815260200160028201548152602001600382015481526020016004820160009054906101000a900460ff16600281111561087d577f4e487b7100000000000000000000000000000000000000000000000000000000600052602160045260246000fd5b60028111156108b5577f4e487b7100000000000000000000000000000000000000000000000000000000600052602160045260246000fd5b815250509050600060028111156108f5577f4e487b7100000000000000000000000000000000000000000000000000000000600052602160045260246000fd5b81608001516002811115610932577f4e487b7100000000000000000000000000000000000000000000000000000000600052602160045260246000fd5b1415610983578060000151838381518110610976577f4e487b7100000000000000000000000000000000000000000000000000000000600052603260045260246000fd5b6020026020010181815250505b50808061098f90612248565b915050610797565b50809250505090565b60066020528060005260406000206000915090508060000160009054906101000a900473ffffffffffffffffffffffffffffffffffffffff16908060010180546109e990612216565b80601f0160208091040260200160405190810160405280929190818152602001828054610a1590612216565b8015610a625780601f10610a3757610100808354040283529160200191610a62565b820191906000526020600020905b815481529060010190602001808311610a4557829003601f168201915b505050505090806002018054610a7790612216565b80601f0160208091040260200160405190810160405280929190818152602001828054610aa390612216565b8015610af05780601f10610ac557610100808354040283529160200191610af0565b820191906000526020600020905b815481529060010190602001808311610ad357829003601f168201915b5050505050908060030160009054906101000a900460ff16908060030160019054906101000a900460ff16905085565b610b28610dd7565b610b67576040517f08c379a0000000000000000000000000000000000000000000000000000000008152600401610b5e90611e61565b60405180910390fd5b6000600460008381526020019081526020016000206040518060a0016040529081600082015481526020016001820160009054906101000a900473ffffffffffffffffffffffffffffffffffffffff1673ffffffffffffffffffffffffffffffffffffffff1673ffffffffffffffffffffffffffffffffffffffff16815260200160028201548152602001600382015481526020016004820160009054906101000a900460ff166002811115610c46577f4e487b7100000000000000000000000000000000000000000000000000000000600052602160045260246000fd5b6002811115610c7e577f4e487b7100000000000000000000000000000000000000000000000000000000600052602160045260246000fd5b815250509050600281608001906002811115610cc3577f4e487b7100000000000000000000000000000000000000000000000000000000600052602160045260246000fd5b90816002811115610cfd577f4e487b7100000000000000000000000000000000000000000000000000000000600052602160045260246000fd5b8152505080600460008481526020019081526020016000206000820151816000015560208201518160010160006101000a81548173ffffffffffffffffffffffffffffffffffffffff021916908373ffffffffffffffffffffffffffffffffffffffff160217905550604082015181600201556060820151816003015560808201518160040160006101000a81548160ff02191690836002811115610dcb577f4e487b7100000000000000000000000000000000000000000000000000000000600052602160045260246000fd5b02179055509050505050565b600080610de33361135f565b90506000811415610df8576000915050610dfe565b60019150505b90565b6060600760003373ffffffffffffffffffffffffffffffffffffffff1673ffffffffffffffffffffffffffffffffffffffff168152602001908152602001600020805480602002602001604051908101604052809291908181526020018280548015610e8c57602002820191906000526020600020905b815481526020019060010190808311610e78575b5050505050905090565b60038060000154905081565b600080600460008481526020019081526020016000206040518060a0016040529081600082015481526020016001820160009054906101000a900473ffffffffffffffffffffffffffffffffffffffff1673ffffffffffffffffffffffffffffffffffffffff1673ffffffffffffffffffffffffffffffffffffffff16815260200160028201548152602001600382015481526020016004820160009054906101000a900460ff166002811115610f82577f4e487b7100000000000000000000000000000000000000000000000000000000600052602160045260246000fd5b6002811115610fba577f4e487b7100000000000000000000000000000000000000000000000000000000600052602160045260246000fd5b8152505090508060400151915050919050565b6000610fd7610dd7565b611016576040517f08c379a000000000000000000000000000000000000000000000000000000000815260040161100d90611e81565b60405180910390fd5b61102060036115ba565b600061102c60036115d0565b905060006040518060a001604052808381526020013373ffffffffffffffffffffffffffffffffffffffff168152602001868152602001858152602001600060028111156110a3577f4e487b7100000000000000000000000000000000000000000000000000000000600052602160045260246000fd5b815250905080600460008481526020019081526020016000206000820151816000015560208201518160010160006101000a81548173ffffffffffffffffffffffffffffffffffffffff021916908373ffffffffffffffffffffffffffffffffffffffff160217905550604082015181600201556060820151816003015560808201518160040160006101000a81548160ff02191690836002811115611172577f4e487b7100000000000000000000000000000000000000000000000000000000600052602160045260246000fd5b02179055509050506000600760003373ffffffffffffffffffffffffffffffffffffffff1673ffffffffffffffffffffffffffffffffffffffff1681526020019081526020016000209050808390806001815401808255809150506001900390600052602060002001600090919091909150557f204bc022fa26366a9c1a614f0418b5d7a017e73cb2404f70a9a696f110334e5133848760405161121893929190611d90565b60405180910390a182935050505092915050565b6000611236610dd7565b90508015611279576040517f08c379a000000000000000000000000000000000000000000000000000000000815260040161127090611e41565b60405180910390fd5b60006001905061128960056115ba565b61129f61129660056115d0565b338686856115de565b50505050565b60008060009054906101000a900473ffffffffffffffffffffffffffffffffffffffff1673ffffffffffffffffffffffffffffffffffffffff163373ffffffffffffffffffffffffffffffffffffffff1614905090565b60046020528060005260406000206000915090508060000154908060010160009054906101000a900473ffffffffffffffffffffffffffffffffffffffff16908060020154908060030154908060040160009054906101000a900460ff16905085565b600080600090506000600190505b61137760056115d0565b81116115a4576000600660008381526020019081526020016000206040518060a00160405290816000820160009054906101000a900473ffffffffffffffffffffffffffffffffffffffff1673ffffffffffffffffffffffffffffffffffffffff1673ffffffffffffffffffffffffffffffffffffffff16815260200160018201805461140390612216565b80601f016020809104026020016040519081016040528092919081815260200182805461142f90612216565b801561147c5780601f106114515761010080835404028352916020019161147c565b820191906000526020600020905b81548152906001019060200180831161145f57829003601f168201915b5050505050815260200160028201805461149590612216565b80601f01602080910402602001604051908101604052809291908181526020018280546114c190612216565b801561150e5780601f106114e35761010080835404028352916020019161150e565b820191906000526020600020905b8154815290600101906020018083116114f157829003601f168201915b505050505081526020016003820160009054906101000a900460ff161515151581526020016003820160019054906101000a900460ff16151515158152505090508473ffffffffffffffffffffffffffffffffffffffff16816000015173ffffffffffffffffffffffffffffffffffffffff16141561159057819250506115a4565b50808061159c90612248565b91505061136d565b5080915050919050565b60058060000154905081565b6001816000016000828254019250508190555050565b600081600001549050919050565b60006001905060006040518060a001604052808773ffffffffffffffffffffffffffffffffffffffff16815260200186815260200185815260200184151581526020018315158152509050806006600089815260200190815260200160002060008201518160000160006101000a81548173ffffffffffffffffffffffffffffffffffffffff021916908373ffffffffffffffffffffffffffffffffffffffff16021790555060208201518160010190805190602001906116a0929190611749565b5060408201518160020190805190602001906116bd929190611749565b5060608201518160030160006101000a81548160ff02191690831515021790555060808201518160030160016101000a81548160ff0219169083151502179055509050507f83b66a7eb14a9bd3c42c2a697caf084b40a9b2d704356fe6eeb1909a12e323c08787878787604051611738959493929190611ebc565b60405180910390a150505050505050565b82805461175590612216565b90600052602060002090601f01602090048101928261177757600085556117be565b82601f1061179057805160ff19168380011785556117be565b828001600101855582156117be579182015b828111156117bd5782518255916020019190600101906117a2565b5b5090506117cb91906117cf565b5090565b5b808211156117e85760008160009055506001016117d0565b5090565b60006117ff6117fa84611fa1565b611f70565b90508281526020810184848401111561181757600080fd5b6118228482856121d4565b509392505050565b600081359050611839816123a1565b92915050565b60008151905061184e816123b8565b92915050565b60008083601f84011261186657600080fd5b8235905067ffffffffffffffff81111561187f57600080fd5b60208301915083600182028301111561189757600080fd5b9250929050565b600082601f8301126118af57600080fd5b81356118bf8482602086016117ec565b91505092915050565b6000813590506118d7816123cf565b92915050565b6000602082840312156118ef57600080fd5b60006118fd8482850161182a565b91505092915050565b60008060008060006080868803121561191e57600080fd5b600061192c8882890161182a565b955050602061193d8882890161182a565b945050604061194e888289016118c8565b935050606086013567ffffffffffffffff81111561196b57600080fd5b61197788828901611854565b92509250509295509295909350565b6000806000806080858703121561199c57600080fd5b60006119aa8782880161182a565b94505060206119bb8782880161182a565b93505060406119cc878288016118c8565b92505060606119dd878288016118c8565b91505092959194509250565b6000602082840312156119fb57600080fd5b6000611a098482850161183f565b91505092915050565b60008060408385031215611a2557600080fd5b600083013567ffffffffffffffff811115611a3f57600080fd5b611a4b8582860161189e565b925050602083013567ffffffffffffffff811115611a6857600080fd5b611a748582860161189e565b9150509250929050565b600060208284031215611a9057600080fd5b6000611a9e848285016118c8565b91505092915050565b60008060408385031215611aba57600080fd5b6000611ac8858286016118c8565b9250506020611ad9858286016118c8565b9150509250929050565b6000611aef8383611cda565b60208301905092915050565b611b048161213b565b82525050565b6000611b1582611fe1565b611b1f8185612004565b9350611b2a83611fd1565b8060005b83811015611b5b578151611b428882611ae3565b9750611b4d83611ff7565b925050600181019050611b2e565b5085935050505092915050565b611b718161214d565b82525050565b611b8081612159565b82525050565b611b8f816121c2565b82525050565b6000611ba082611fec565b611baa8185612015565b9350611bba8185602086016121e3565b611bc38161237c565b840191505092915050565b6000611bdb601583612015565b91507f417574686f7220616c72656164792065786973747300000000000000000000006000830152602082019050919050565b6000611c1b602b83612015565b91507f4f6e6c79207265676973746572656420617574686f72732063616e2072656d6f60008301527f7665206c697374696e67730000000000000000000000000000000000000000006020830152604082019050919050565b6000611c81602b83612015565b91507f4f6e6c79207265676973746572656420617574686f72732063616e206372656160008301527f7465206c697374696e67730000000000000000000000000000000000000000006020830152604082019050919050565b611ce3816121b8565b82525050565b611cf2816121b8565b82525050565b6000606082019050611d0d6000830186611afb565b611d1a6020830185611afb565b611d276040830184611ce9565b949350505050565b600060a082019050611d446000830188611afb565b8181036020830152611d568187611b95565b90508181036040830152611d6a8186611b95565b9050611d796060830185611b68565b611d866080830184611b68565b9695505050505050565b6000606082019050611da56000830186611afb565b611db26020830185611ce9565b611dbf6040830184611ce9565b949350505050565b60006020820190508181036000830152611de18184611b0a565b905092915050565b6000602082019050611dfe6000830184611b68565b92915050565b6000602082019050611e196000830184611b77565b92915050565b60006020820190508181036000830152611e398184611b95565b905092915050565b60006020820190508181036000830152611e5a81611bce565b9050919050565b60006020820190508181036000830152611e7a81611c0e565b9050919050565b60006020820190508181036000830152611e9a81611c74565b9050919050565b6000602082019050611eb66000830184611ce9565b92915050565b600060a082019050611ed16000830188611ce9565b611ede6020830187611afb565b8181036040830152611ef08186611b95565b90508181036060830152611f048185611b95565b9050611f136080830184611b68565b9695505050505050565b600060a082019050611f326000830188611ce9565b611f3f6020830187611afb565b611f4c6040830186611ce9565b611f596060830185611ce9565b611f666080830184611b86565b9695505050505050565b6000604051905081810181811067ffffffffffffffff82111715611f9757611f9661234d565b5b8060405250919050565b600067ffffffffffffffff821115611fbc57611fbb61234d565b5b601f19601f8301169050602081019050919050565b6000819050602082019050919050565b600081519050919050565b600081519050919050565b6000602082019050919050565b600082825260208201905092915050565b600082825260208201905092915050565b6000612031826121b8565b915061203c836121b8565b9250827fffffffffffffffffffffffffffffffffffffffffffffffffffffffffffffffff0382111561207157612070612291565b5b828201905092915050565b6000612087826121b8565b9150612092836121b8565b9250826120a2576120a16122c0565b5b828204905092915050565b60006120b8826121b8565b91506120c3836121b8565b9250817fffffffffffffffffffffffffffffffffffffffffffffffffffffffffffffffff04831182151516156120fc576120fb612291565b5b828202905092915050565b6000612112826121b8565b915061211d836121b8565b9250828210156121305761212f612291565b5b828203905092915050565b600061214682612198565b9050919050565b60008115159050919050565b60007fffffffff0000000000000000000000000000000000000000000000000000000082169050919050565b60008190506121938261238d565b919050565b600073ffffffffffffffffffffffffffffffffffffffff82169050919050565b6000819050919050565b60006121cd82612185565b9050919050565b82818337600083830152505050565b60005b838110156122015780820151818401526020810190506121e6565b83811115612210576000848401525b50505050565b6000600282049050600182168061222e57607f821691505b602082108114156122425761224161231e565b5b50919050565b6000612253826121b8565b91507fffffffffffffffffffffffffffffffffffffffffffffffffffffffffffffffff82141561228657612285612291565b5b600182019050919050565b7f4e487b7100000000000000000000000000000000000000000000000000000000600052601160045260246000fd5b7f4e487b7100000000000000000000000000000000000000000000000000000000600052601260045260246000fd5b7f4e487b7100000000000000000000000000000000000000000000000000000000600052602160045260246000fd5b7f4e487b7100000000000000000000000000000000000000000000000000000000600052602260045260246000fd5b7f4e487b7100000000000000000000000000000000000000000000000000000000600052604160045260246000fd5b6000601f19601f8301169050919050565b6003811061239e5761239d6122ef565b5b50565b6123aa8161213b565b81146123b557600080fd5b50565b6123c18161214d565b81146123cc57600080fd5b50565b6123d8816121b8565b81146123e357600080fd5b5056fea264697066735822122031dbdd9ca43bbd53558162a124a1310d226ae379d9a270cb992435a2cd98237c64736f6c63430008000033",
  "linkReferences": {},
  "deployedLinkReferences": {}
}